:020000040000FA
:10000000803102288731F02F08008F31AC278031F2
:1000100070082400910008007408803AF5008030D0
:100020007502031D152801307302031818281928BA
:1000300025287309F5007409F600F50A0319F60A74
:100040007508F3007608F400252808002000A001B8
:10005000A10139287A08200784007B08213D85000A
:10006000000881312321803101302000A0070030B9
:10007000A13D7A08200784007B08213D85001200FD
:10008000031D432844282A2808002100CC0068309A
:10009000FD007D08CB004C08FD007D08CD00CE01A1
:1000A000CF01D001D10120006708DF006608DE0023
:1000B000CB30FD007D08E000CD308031F220803172
:1000C00021004E084C07FD007D0886008701810154
:1000D00008002000A300A101A20181282008F90046
:1000E000FA017908F0007A08F1007808FB007B0833
:1000F000F2008131EE21803101302000A107003073
:10010000A23D21082307F90079088600870101082C
:10011000FA007A08A0002008031D8F2890286E2876
:100120000800283024009500960120002008A40033
:100130002108A5002208A6002308A7000230A43544
:10014000A50DA60DA70D890B9F282708F3002608EB
:10015000F2002508F1002408F0000030F7007A30A2
:10016000F6001230F5000030F40082319322803125
:100170007008FF3E24009200940121000E148E149A
:100180000800FA007A08F5000330F535FF3E031D3C
:10019000C5287535F6007608FA0000308F31CE2775
:1001A00080317A088F31CE27803104307A04F8000C
:1001B0000030F90078088F31CE2780310B30F50000
:1001C0006230890BE128F50BE12800327A08F5004E
:1001D000F6017508F8007608F90078088F31CE2707
:1001E000803108002000E3005F08E5005E08E400BD
:1001F0002100A001A10110296430E1006108CE00B6
:100200006008E2006208CF0063088331C7238031B1
:1002100020004E082100A00720004F082100A13D2A
:10022000200064088400650885001200031D192958
:100230001A29FC28210021082000DF0021002008C5
:100240002000DE000800F70077080F39F500750878
:10025000F9007908F5000330F535FF3E031D2C2920
:100260007535F6007608F9007708F039F50075085D
:10027000F80001308F31CE27813178088F31CE27B9
:100280008131780805388F31CE2781311A30890BBA
:1002900047290032780801388F31CE27813179081B
:1002A0008F31CE278131790805388F31CE278131C2
:1002B0001A30890B59290032790801388F31CE273D
:1002C0008131080000308F31CE2781313430FB007E
:1002D000F230890B6929FB0B692903308031C12079
:1002E00081310D30FB00FC30890B7429FB0B742924
:1002F00003308031C12081311D30FB009130890BEA
:100300007F29FB0B7F29000003308031C120813120
:1003100002308031C120813102308031C1208131F1
:1003200008308031C120813100308031C1208131DD
:100330000C308031C120813100308031C1208131C9
:1003400006308031C120813108002000A000200348
:10035000031DAB29AC29CA297B087F3EFC007C0821
:10036000A3002308FC000430FC36890BB4297C0868
:10037000FD007D08A10023080F39FC007C08A200C5
:1003800021088031C1208131200022088031C12024
:100390008131ED2902302006031DCF29D029ED2916
:1003A0007B08BF3EFC007C08A3002308FC0004304F
:1003B000FC36890BD8297C08FD007D08A1002308A4
:1003C0000F39FC007C08A20021088031C120813156
:1003D000200022088031C1208131080072080319F1
:1003E000F229F329F8297208031DF729F829FD29B4
:1003F00070088031042081313C2A7208033E860057
:100400008701160001040319062A072A242A720804
:10041000033E86008701403FF300413FF400720A2B
:1004200086008701403FF500413FF6007608803A9C
:10043000F7007408803A7702031D202A73087502BA
:100440000318232A242A3C2A7008F3007208860025
:100450008701720A8400850100080107F40074080E
:100460008600870173088100720A860087010130C7
:10047000810741310318810A08002000AB006E1C7F
:10048000422A432A4B2A2B08FC007C08F800240847
:100490008031692082312000A61B4F2A502A552A1C
:1004A0002608AA002508A900572AA901AA01A70120
:1004B000A8016B2A2030F0000030F10020002B084A
:1004C000FC007C08F2008131EE21823101302000F5
:1004D000A7070030A83D2808803AFC002A08803A87
:1004E0007C02031D752A29082702031C782A792A11
:1004F0005A2A20006E187D2A7E2A862A2B08FC00A4
:100500007C08F8002408803169208231200024080A
:100510008F31E7278231200029087007A4002A08BC
:10052000713DA50008000030FC000030FB000030E9
:10053000FA000030F90073087204710470040319A2
:10054000A22AA32AE42AFD01FD0AB12A0130F035CE
:10055000F10DF20DF30D890BA72A0130F800780890
:10056000FD07F31FB42AB52AA62A0130F935FA0D82
:10057000FB0DFC0D890BB62A73087702031DCA2AEE
:1005800072087602031DCA2A71087502031DCA2A61
:1005900070087402031CCD2ACE2AD72A7008F402F0
:1005A0007108F53B7208F63B7308F73B791401308C
:1005B000F336F20CF10CF00C890BD82A0130FD0255
:1005C000031DE32AE42AB52A7C08F3007B08F20025
:1005D0007A08F1007908F000080021009911191635
:1005E000991619178B130B120B1323008C018E0114
:1005F00021008C018E0120008C018E0122008C01D3
:100600008E0121000C148C140C150E128E120C1677
:100610000E158E150E148E1400302000A30001302C
:10062000A2008630A100A030A0008031912082314C
:1006300002302000A9000430A800BA30890B1E2B1C
:10064000A80B1E2BA90B1E2B0000813162218231C9
:100650008F31A32782318F319A278231FB01FB0A28
:1006600001308131A52182312D30FA009030FB001C
:1006700080312620823115302000A9004B30A8009F
:10068000BE30890B412BA80B412BA90B412B00003D
:1006900008008231ED2283318F31B8278331250064
:1006A000980122000E128E168F31A3278331383025
:1006B0002000E6009030E700250018082000EA003E
:1006C000EB016A08E8006B08E900C630803145207C
:1006D0008331FB01FB0A01308131A5218331C63012
:1006E000FA000030FB0080312620833120000C1CF2
:1006F0007A2B7B2B8B2BFB01FB0A02308131A5214E
:1007000083311F30FA009030FB0080312620833186
:1007100025009801572B8C1C8E2B8F2BAD2BFB01AA
:10072000FB0A02308131A52183310030FA0090307C
:10073000FB008031262083310130250098020230F1
:100740002000EB000430EA00BA30890BA52BEA0B3D
:10075000A52BEB0BA52B0000572B0C1DB02BB12BA1
:100760009F2BFB01FB0A02308131A5218331103020
:10077000FA009030FB0080312620833101302000C8
:10078000EA006A08250098079F2B80310228200084
:10079000DD004E0886008701403FD000413FD10078
:1007A00050088400510885001200253A031DD92BFA
:1007B000DA2B7E2C4E0886008701013081074131FB
:1007C0000318810A2100A201A3012000EE01EF011C
:1007D000FF30EC00FF30ED004E0886008701403FFF
:1007E000D000413FD100500884005108850012001C
:1007F000643A0319FC2BFD2B0E2C4E088600870152
:10080000403FD000413FD10050088400510885008E
:100810001200693A031D0D2C0E2C492C4E0886003F
:1008200087010130810741310318810A4F08860092
:10083000870101088400850102308107003FD00054
:10084000013FD1005008D5005108D600890D893BE1
:100850008909D700D800D900DA00DB00DC00550890
:10086000B0005608B1005708B2005808B300590844
:10087000B4005A08B5005B08B6005C08B7005D0814
:1008800086318D26833120003108CF003008CE001C
:10089000A12C4E0886008701403FD000413FD10087
:1008A00050088400510885001200253A031D592C78
:1008B0005A2C732C4E088600870101308107413184
:1008C0000318810A2530F0000030F1005D08D000E7
:1008D0005008F2008131EE21833101302000CE003A
:1008E0000030CF00A12C4E0886008701013081071F
:1008F00041310318810ACE01CF01A12C4E08860098
:100900008701403FD000413FD1005008840051088A
:1009100085000008D200D3015208F0005308F1000E
:100920005D08D4005408F2008131EE2183312000AB
:100930004E08860087010130810741310318810A82
:100940006D2C0800F2012830860000308700473FF8
:10095000F000F01FAC2CAD2CCE2C2000A809A9096A
:10096000AA09AB09AC09AD09AE09AF09A80A031D74
:10097000CC2CA90A031DCC2CAA0A031DCC2CAB0A33
:10098000031DCC2CAC0A031DCC2CAD0A031DCC2CB2
:10099000AE0A031DCC2CAF0AF201F20A2030860009
:1009A00000308700473FF000F01FD72CD82CF72CE1
:1009B0002000A009A109A209A309A409A509A60963
:1009C000A709A00A031DF72CA10A031DF72CA20AF0
:1009D000031DF72CA30A031DF72CA40A031DF72CF3
:1009E000A50A031DF72CA60A031DF72CA70A200051
:1009F00020082104220423042404250426042704B7
:100A00000319032D042D572DF101F10A132DA035E3
:100A1000A10DA20DA30DA40DA50DA60DA70D0130CE
:100A2000F0007008F107A71F162D172D072D2708B6
:100A30002F02031D352D26082E02031D352D2508F6
:100A40002D02031D352D24082C02031D352D2308EE
:100A50002B02031D352D22082A02031D352D2108E6
:100A60002902031D352D20082802031C382D392D9D
:100A7000492D2008A8022108A93B2208AA3B2308E7
:100A8000AB3B2408AC3B2508AD3B2608AE3B270812
:100A9000AF3BA736A60CA50CA40CA30CA20CA10C72
:100AA000A00C0130F102031D562D572D172D720891
:100AB00003195B2D5C2D7A2DA809A909AA09AB0998
:100AC000AC09AD09AE09AF09A80A031D7A2DA90A20
:100AD000031D7A2DAA0A031D7A2DAB0A031D7A2D58
:100AE000AC0A031D7A2DAD0A031D7A2DAE0A031D33
:100AF0007A2DAF0A20002808A0002908A1002A08A2
:100B0000A2002B08A3002C08A4002D08A5002E0885
:100B1000A6002F08A7000800F20120308600003050
:100B20008700473FF000F01F962D972DB82D20002D
:100B3000A009A109A209A309A409A509A609A70951
:100B4000A00A031DB62DA10A031DB62DA20A031D7E
:100B5000B62DA30A031DB62DA40A031DB62DA50AA2
:100B6000031DB62DA60A031DB62DA70AF201F20A2F
:100B70002830860000308700473FF000F01FC12D6D
:100B8000C22DE52D2000A809A909AA09AB09AC09C5
:100B9000AD09AE09AF09A80A031DE12DA90A031D7D
:100BA000E12DAA0A031DE12DAB0A031DE12DAC0ABC
:100BB000031DE12DAD0A031DE12DAE0A031DE12D3C
:100BC000AF0A0130F0007008F20673308600003082
:100BD00087000830F00000301E00F00BEC2D2000E4
:100BE00020082104220423042404250426042704C5
:100BF0000319FB2DFC2D582EF101F10A0B2EA03507
:100C0000A10DA20DA30DA40DA50DA60DA70D0130DC
:100C1000F0007008F107A71F0E2E0F2EFF2DF335E1
:100C2000F40DF50DF60DF70DF80DF90DFA0D270879
:100C30002F02031D352E26082E02031D352E2508F2
:100C40002D02031D352E24082C02031D352E2308EA
:100C50002B02031D352E22082A02031D352E2108E2
:100C60002902031D352E20082802031C382E392E98
:100C70004A2E2008A8022108A93B2208AA3B2308E3
:100C8000AB3B2408AC3B2508AD3B2608AE3B270810
:100C9000AF3B7314A736A60CA50CA40CA30CA20C96
:100CA000A10CA00C0130F102031D572E582E0F2E5F
:100CB000720803195C2E5D2E7B2EF309F409F509E9
:100CC000F609F709F809F909FA09F30A031D7B2E59
:100CD000F40A031D7B2EF50A031D7B2EF60A031D65
:100CE0007B2EF70A031D7B2EF80A031D7B2EF90AC3
:100CF000031D7B2EFA0A73082000A0007408A100CF
:100D00007508A2007608A3007708A4007808A5005B
:100D10007908A6007A08A70008002000BD00300866
:100D2000C4003108C5003208C6003308C7003408C3
:100D3000C8003508C9003608CA003708CB0044305F
:100D4000860000308700473FB800B81BA82EAA2EA7
:100D50000130AB2E00302000B900BA013908C200C2
:100D60003A08C300420843040319B72EB82ED62E02
:100D7000C409C509C609C709C809C909CA09CB09EF
:100D8000C40A031DD62EC50A031DD62EC60A031D8E
:100D9000D62EC70A031DD62EC80A031DD62EC90A91
:100DA000031DD62ECA0A031DD62ECB0A2000ED1B2A
:100DB000DA2EDB2EDF2EFD30EE05FF30EF056D085D
:100DC000803AB80080303802031DE82E01306C02F2
:100DD0000318EB2EEC2EF22E01302000BE00003066
:100DE000BF00F72E20006D08BF006C08BE00210078
:100DF00023082000C100210022082000C000420872
:100E00004304031D042F052F092F6E1D082F092FE2
:100E10000D2FFF30C007FF30C13D1F30CC00003028
:100E2000CD002100C5017C2FFF302000CC07FF3012
:100E3000CD3D0A30A000A101A201A301A401A5019A
:100E4000A601A7014408A8004508A9004608AA0071
:100E50004708AB004808AC004908AD004A08AE009E
:100E60004B08AF008431A224863120002108F40011
:100E70002008F30080310C2086317308303E2000BA
:100E8000B8004C08A63E8600870138088100FF3074
:100E9000BE07FF30BF3DFF30C007FF30C13D0A3005
:100EA000A000A101A201A301A401A501A601A7011F
:100EB0004408A8004508A9004608AA004708AB0056
:100EC0004808AC004908AD004A08AE004B08AF0026
:100ED00085318C25863120002008C4002108C500FA
:100EE0002208C6002308C7002408C8002508C90036
:100EF0002608CA002708CB0020004D08803AB80019
:100F000080303802031D862F01304C02031C892FCC
:100F10008A2FB72F2000440845044604470448049C
:100F200049044A044B04031D962F972F142F3F08A2
:100F3000803AB80080303802031DA02F01303E02F5
:100F40000318A32FA42F142F20004108803AB800C3
:100F500080303802031DAE2F01304002031CB12F38
:100F6000B22FB72F2000EE18B62FB72F142F200066
:100F700042084304031DBD2FBE2FC22F6E1DC12F7B
:100F8000C22FDD2FFF30CC07FF30CD3D4208430498
:100F9000031DCB2FCC2FD12F2B30BB000030BC003A
:100FA000D52F2D30BB000030BC003B08B8004C08EA
:100FB000A63E86008701380881004C08A63EB8008E
:100FC0003808A4004108A6004008A5003D08823169
:100FD0003D22863120002508B1002408B000080019
:100FE0002000EC01ED01EE01EF01A03084000030A3
:100FF000850029308F319427873120008331492B98
:101F10008F31AC278F312400161408008F31AC2785
:101F20008F31240016150800640080010131890BEF
:101F3000952F003400308031C1208F310C3080313A
:101F4000C1208F31080000308031C1208F31013035
:101F50008031C1208F31080024001419B02FB12F17
:101F6000AC2F16081F39031DB62FB72FAC2F080052
:101F700021008C162000911022001E140C30250028
:101F80009A009E019C01653020009B00250098016D
:101F9000043020009C0021008C120800F4008F31D6
:101FA00088278F317030F0000030F100803105203B
:101FB0008F317408F200F3017208F0007308F10029
:101FC000803105208F318F318E278F310800F4004A
:101FD0007408F2007208F300F12F0130F200720869
:101FE000F4077408860087010108031DF82FF92FF4
:101FF000ED2F73087402F000F101F01BF1030800EB
:102000004D3449344E345534533420343D343D340A
:102010002034503455345334483445344434003437
:1020200050344C345534533420343D343D34203412
:1020300050345534533448344534443400345334E4
:102040005334543420343D343D34203450345534EA
:102050005334483445344434003450346134753496
:102060006C34203449346F34723467346134003452
:0620700025346434003445
:020000040001F9
:04000E00E4C9FFFC46
:00000001FF
