:020000040000FA
:08000000803102288731FA2F3C
:100B2E008531BC2585312400161408008531BC257D
:100B3E0085312400161508008531BC2585317008D5
:100B4E0024009100080000308631502685310C308B
:100B5E008631502685310800003086315026853189
:100B6E000130863150268531080024001419C02D1D
:100B7E00C12DBC2D16081F39031DC62DC72DBC2D2A
:100B8E000800F4008531972585317030F000003073
:100B9E00F1008531A32585317408F200F301720846
:100BAE00F0007308F1008531A325853185319D252F
:100BBE00853108002000A001A101F42D7A0820073C
:100BCE0084007B08213D8500000886318126853111
:100BDE0001302000A0070030A13D7A0820078400D4
:100BEE007B08213D85001200031DFE2DFF2DE52DF6
:100BFE00080087314C278631FB01FB0A0130873113
:100C0E00032786310B30FA008830FB008531E12551
:100C1E00863102302000AB000430AA00BA30890BB6
:100C2E00162EAA0B162EAB0B162E0000032E80319D
:100C3E000228283024009500960120002008A400E8
:100C4E002108A5002208A6002308A7000230A4351B
:100C5E00A50DA60DA70D890B2E2E2708F30026082D
:100C6E00F2002508F1002408F0000030F7007A3079
:100C7E00F6001230F5000030F4008731A0278631DF
:100C8E007008FF3E24009200940121000E148E1471
:100C9E000800FA007A08F5000330F535FF3E031D13
:100CAE00542E7535F6007608FA0000308531C825C9
:100CBE0086317A088531C825863104307A04F800E9
:100CCE000030F90078088531C82586310B30F500E3
:100CDE006230890B702EF50B702E00327A08F500FB
:100CEE00F6017508F8007608F90078088531C825F0
:100CFE0086310800F70077080F39F5007508F900FE
:100D0E007908F5000330F535FF3E031D8A2E753543
:100D1E00F6007608F9007708F039F5007508F80046
:100D2E0001308531C825863178088531C825863150
:100D3E00780805388531C82586311A30890BA52EDD
:100D4E000032780801388531C82586317908853119
:100D5E00C8258631790805388531C82586311A307F
:100D6E00890BB72E0032790801388531C8258631B6
:100D7E00080000308531C82586313430FB00F23052
:100D8E00890BC72EFB0BC72E0330863150268631BA
:100D9E000D30FB00FC30890BD22EFB0BD22E033014
:100DAE008631502686311D30FB009130890BDD2EA9
:100DBE00FB0BDD2E000003308631502686310230CB
:100DCE0086315026863102308631502686310830E3
:100DDE0086315026863100308631502686310C30D1
:100DEE0086315026863100308631502686310630C7
:100DFE0086315026863108002000A0002003031DF6
:100E0E00092F0A2F282F7B087F3EFC007C08A300A9
:100E1E002308FC000430FC36890B122F7C08FD00E1
:100E2E007D08A10023080F39FC007C08A2002108D0
:100E3E008631502687312000220886315026873190
:100E4E004B2F02302006031D2D2F2E2F4B2F7B08EC
:100E5E00BF3EFC007C08A3002308FC000430FC36D7
:100E6E00890B362F7C08FD007D08A10023080F3961
:100E7E00FC007C08A2002108863150268731200014
:100E8E002208863150268731080021009911191643
:100E9E00991619178B130B120B1323008C018E014D
:100EAE0021008C018E0120008C018E0122008C010C
:100EBE008E0121000E148E1400302000A30001308C
:100ECE00A2008630A100A030A000863120268731F6
:100EDE0002302000A9000430A800BA30890B752F0B
:100EEE00A80B752FA90B752F00008631C0268731F0
:100EFE008531B32587318531AA258731FB01FB0A60
:100F0E0001308731032787310030FA008830FB002B
:100F1E008531E125873115302000A9004B30A8001E
:100F2E00BE30890B982FA80B982FA90B982F000075
:100F3E0008000030FC000030FB000030FA000030EA
:100F4E00F90073087204710470040319AF2FB02FE7
:100F5E00F12FFD01FD0ABE2F0130F035F10DF20D1E
:100F6E00F30D890BB42F0130F8007808FD07F31F3D
:100F7E00C12FC22FB32F0130F935FA0DFB0DFC0D29
:100F8E00890BC32F73087702031DD72F72087602C1
:100F9E00031DD72F71087502031DD72F7008740219
:100FAE00031CDA2FDB2FE42F7008F4027108F53BD7
:100FBE007208F63B7308F73B79140130F336F20CE6
:100FCE00F10CF00C890BE52F0130FD02031DF02F03
:100FDE00F12FC22F7C08F3007B08F2007A08F10093
:100FEE007908F00008002000AC01AD012000863128
:100FFE00002E5034613475346C34203449346F34DF
:10100E007234673461340034543465347334743458
:02101E0000349C
:020000040001F9
:04000E00A4C9FFFC86
:00000001FF
