:020000040000FA
:08000000803102288731F22F44
:10000E0008002000A300A101A20120282008F90069
:10001E00FA017908F0007A08F1007808FB007B08F5
:10002E00F20089315121803101302000A1070030CA
:10003E00A23D21082307F9007908860087010108EF
:10004E00FA007A08A0002008031D2E282F280D285C
:10005E0008008A315022803197312C278031973118
:10006E00072780312500980122000E128E16963138
:10007E00FE26803197311D2780312100DE00DF0101
:10008E00E001E1016108FC006008FB005F08FA0076
:10009E005E08F90001308B31212380317C0820006D
:1000AE00B1007B08B0007A08AF007908AE003C3092
:1000BE00AD009F30AC00FD30AB006130AA00833143
:1000CE000423803120002D08CB002C08CA002B08F9
:1000DE00C9002A08C8003C30C7002330C600D730FC
:1000EE00C5000A30C40081315021803120004708FC
:1000FE00E1004608E0004508DF004408DE008A31D2
:10010E00AC22803120005E082100E200E301E40110
:10011E00E5016508E9006408E8006308E700620885
:10012E00E6006908FC006808FB006708FA0066082C
:10013E00F90001308B31212380317C082100D5005C
:10014E007B08D4007A08D3007908D200C330D100DE
:10015E008830D000C030CF000030CE0085315B2516
:10016E008031210051082000E100210050082000BC
:10017E00E00021004F082000DF0021004E08200083
:10018E00DE008A31AC22803120005E082100DE00C4
:10019E005E08EA0038302000E6009830E7002100C3
:1001AE006A08DE00DF015E082000E80021005F081B
:1001BE002000E900CB30883100208031FB01FB0AA2
:1001CE000130893108218031CB30FA000030FB003C
:1001DE0097318E27803102302100DF000430DE009F
:1001EE00BA30890BF828DE0BF828DF0BF828000050
:1001FE0020000C1C032904291429FB01FB0A0230E0
:10020E008931082180311F30FA009830FB00973178
:10021E008E2780312500980141288C1C172918291A
:10022E003629FB01FB0A023089310821803100306A
:10023E00FA009830FB0097318E278031013025006F
:10024E00980202302100DF000430DE00BA30890B44
:10025E002E29DE0B2E29DF0B2E29000041280C1D26
:10026E0039293A292829FB01FB0A02308931082154
:10027E0080311030FA009830FB0097318E27803194
:10028E0001302100DE005E08250098072829803104
:10029E00022820004B088039CC004C08D5004B3585
:1002AE00CC004C08DC00CA1F5D295E295F295C1456
:1002BE005C0803196329642974295C0A031D6829E3
:1002CE00692971290030CB000030CA000030C90006
:1002DE000030C800CA17CB017C290030CB0000309B
:1002EE00CA000030C9000030C80047088039CC0071
:1002FE004C08D5064735CC004C08DD00C61F8829B2
:10030E0089298A295D145D0803198E298F299F2951
:10031E005D0A031D932994299C290030C7000030E3
:10032E00C6000030C5000030C400C617C701A7299B
:10033E000030C7000030C6000030C5000030C400D9
:10034E004708460445044404031DAE29AF29C829B5
:10035E000030CB000030CA000030C9000030C800A9
:10036E008030CA047F30CB045508CC004C08CB0437
:10037E004B08C7004A08C6004908C5004808C40013
:10038E00032B5C08031DCC29CD29D6290030C700CC
:10039E000030C6000030C5000030C400032B5C08DE
:1003AE00CC00CD014D08CF005D084C02CE00031CE1
:1003BE00CF034E087F3ED60000304F3DD7004B088E
:1003CE00D4004A08D3004908D2004808D1000030B2
:1003DE00CB000030CA000030C9000030C800003029
:1003EE00DB000030DA000030D9000030D800DD012B
:1003FE003E2A5D080319042A052A1F2A0130D13529
:10040E00D20DD30DD40D890B062A0130C835C90D76
:10041E00CA0DCB0D890B0D2ADB1F162A172A182A97
:10042E0048140130D835D90DDA0DDB0D890B192A98
:10043E0047085402031D2D2A46085302031D2D2A78
:10044E0045085202031D2D2A44085102031C302A6E
:10045E00312A3A2A5B174408D1024508D23B460896
:10046E00D33B4708D43B0130CC004C08DD071A3093
:10047E005D02031C432A442A002A540853045204E2
:10048E00510403194B2A4C2A652A5814652A013047
:10049E00C835C90DCA0DCB0D890B4F2ADB1F582A43
:1004AE00592A5A2A48140130D835D90DDA0DDB0DE8
:1004BE00890B5B2AFF30D607FF30D73DCA1F682A4B
:1004CE00692A4E2ADD01DB1F6D2A6E2A8A2AFF3029
:1004DE005805CC00FF305905CD00FF305A05CE002F
:1004EE007F305B05CF004F084E044D044C040319BA
:1004FE00812A822A852ADD01DD0A8A2A481C882A59
:10050E00892A8A2A822A5D0803198E2A8F2AB72AF7
:10051E000130C8070030C93D0030CA3D0030CB3D28
:10052E004B1C9A2A9B2AB72A4808CC004908CD00B2
:10053E004A08CE004B08CF000130D000CF37CE0C8A
:10054E00CD0CCC0CD00BA52A4F08CB004E08CA0000
:10055E004D08C9004C08C8000130D6070030D73D01
:10056E005708803ACC0080304C02031DC02AFF3061
:10057E005602031CC32AC42AD12AFF302000D600FB
:10058E000030D7000030CB000030CA000030C90068
:10059E000030C80020005708803ACC0080304C0252
:1005AE00031DDB2A013056020318DE2ADF2AEB2A4E
:1005BE002000D601D7010030CB000030CA00003039
:1005CE00C9000030C800D50120005608CC004C08E8
:1005DE00DC005C1CF32AF42AF62ACA17FA2A7F30AA
:1005EE00CC004C08CA055C36CC004C08CB00550834
:1005FE00CC004C08CB04BF29080020002D08803900
:10060E00B2003208B7002D35B2003208BD00AC1F63
:10061E00112B122B132B3D143D080319172B182BDE
:10062E00272B3D0A031D1C2B1D2B252B0030AD0047
:10063E000030AC000030AB000030AA00AC172F2BFE
:10064E000030AD000030AC000030AB000030AA002E
:10065E0031088039B2003208B7063135B20032089F
:10066E00BC00B01F3B2B3C2B3D2B3C143C0803190C
:10067E00412B422B512B3C0A031D462B472B4F2B54
:10068E000030B1000030B0000030AF000030AE00DE
:10069E00B017592B0030B1000030B0000030AF0061
:1006AE000030AE003C0803195D2B5E2B632B3D081A
:1006BE00031D622B632B6C2B0030AD000030AC00A1
:1006CE000030AB000030AA005A2D2A08B2003208C2
:1006DE00F00030089731AD27833171082000C30038
:1006EE007008C2004208B200B301B401B50135086A
:1006FE00BB003408BA003308B9003208B80043080A
:10070E00B200B301B401B5013508C1003408C00010
:10071E003308BF003208BE002B08B2003208F000CA
:10072E002F089731AD27833171082000C300700860
:10073E00C2004208B200B301B401B5013208B807D5
:10074E003308B93D3408BA3D3508BB3D4308B20005
:10075E00B301B401B5013208BE073308BF3D3408FA
:10076E00C03D3508C13D2C08B2003208F0002E08FD
:10077E009731AD27833171082000C3007008C20085
:10078E004208B200B301B401B5013208B80733080C
:10079E00B93D3408BA3D3508BB3D4308B200B3013C
:1007AE00B401B5013208BE073308BF3D3408C03D61
:1007BE003508C13D0830B835B90DBA0DBB0D890BE2
:1007CE00E22B2B08B2003208F0002E089731AD272D
:1007DE00833171082000C3007008C2004208B807B8
:1007EE004308B93D0030BA3DBB3D2A08B20032087D
:1007FE00F0002F089731AD27833171082000C30018
:10080E007008C2004208B8074308B93D0030BA3D2F
:10081E00BB3D0830B835B90DBA0DBB0D890B112C87
:10082E002A08B2003208F0002E089731AD27833126
:10083E0071082000C3007008C2004208B8074308C0
:10084E00B93D0030BA3DBB3D2B08B2003208F00076
:10085E0030089731AD27833171082000C30070082E
:10086E00C2004208BE074308BF3D0030C03DC13D37
:10087E002C08B2003208F0002F089731AD278331D3
:10088E0071082000C3007008C2004208BE0743086A
:10089E00BF3D0030C03DC13D2C08B2003208F00013
:1008AE0030089731AD27833171082000C3007008DE
:1008BE00C2004208B2004308B300B401B5010830CB
:1008CE00B235B30DB40DB50D890B672C3208BE07CA
:1008DE003308BF3D3408C03D3508C13D3808B2006D
:1008EE003908B3003A08B4003B08B5001830B536E5
:1008FE00B40CB30CB20C890B7E2C3208BE07330835
:10090E00BF3D3408C03D3508C13D0830B835B90D7E
:10091E00BA0DBB0D890B8D2C3D083C07B200B301FF
:10092E00B30D3208823EC200FF30333DC300B62CF9
:10093E000130BE35BF0DC00DC10D890BA02CBB1FE4
:10094E00A92CAA2CAB2C3E140130B835B90DBA0D1A
:10095E00BB0D890BAC2CFF30C207FF30C33DC01F4F
:10096E00B92CBA2C9F2CBC01BB1FBE2CBF2CDB2C70
:10097E00FF303805B200FF303905B300FF303A05BD
:10098E00B4007F303B05B50035083404330432041F
:10099E000319D22CD32CD62CBC01BC0ADB2C3E1C4A
:1009AE00D92CDA2CDB2CD32C3C080319DF2CE02CB1
:1009BE00082D0130BE070030BF3D0030C03D003075
:1009CE00C13D411CEB2CEC2C082D3E08B2003F081B
:1009DE00B3004008B4004108B5000130B600B53789
:1009EE00B40CB30CB20CB60BF62C3508C10034089F
:1009FE00C0003308BF003208BE000130C20700300D
:100A0E00C33D4308803AB20080303202031D112DDF
:100A1E00FF304202031C142D152D1F2D7F30200098
:100A2E00C1008030C0000030BF000030BE004E2D2F
:100A3E0020004308803AB20080303202031D292D77
:100A4E000130420203182C2D2D2D382D00302000A0
:100A5E00C1000030C0000030BF000030BE00B70142
:100A6E004E2D20004208B2003208BD00FF30BE05F8
:100A7E00FF30BF057F30C0050030C1053D1C482D3D
:100A8E00492D4A2DC0173D36B2003208C100370835
:100A9E00B2003208C1044108AD004008AC003F0866
:100AAE00AB003E08AA000800210051088039D6008C
:100ABE0056082000E90021005135D60056082000C6
:100ACE00EB002100D01F6C2D6D2D6F2D20006B14AF
:100ADE0020006B080319742D752D872D6B0A031DCD
:100AEE00792D7A2D832D00302100D1000030D000D9
:100AFE000030CF000030CE002100D017D101902D54
:100B0E0000302100D1000030D0000030CF00003086
:100B1E00CE0055088039D60056082000EA006A0833
:100B2E00690603199B2D9C2D9D2D691721005535A6
:100B3E00D60056082000EA002100D41FA72DA82DAC
:100B4E00AA2D20006A1420006A080319AF2DB02DBB
:100B5E00C22D6A0A031DB42DB52DBE2D0030210005
:100B6E00D5000030D4000030D3000030D200210078
:100B7E00D417D501CB2D00302100D5000030D40084
:100B8E000030D3000030D20020006B086A02031838
:100B9E00D12DD22D2F2E691FD52DD62DDC2D8030A7
:100BAE002100D60056082000E9066B082100D60069
:100BBE0056082000EC006A082100D60056082000D6
:100BCE00EB006C082100D60056082000EA00210038
:100BDE004E08D60056082000EC0021005208D60020
:100BEE005608CE0020006C082100D6005608D20010
:100BFE004F08D60056082000EC0021005308D600FE
:100C0E005608CF0020006C082100D6005608D300ED
:100C1E005008D60056082000EC0021005408D600DB
:100C2E005608D00020006C082100D6005608D400CB
:100C3E005108D60056082000EC0021005508D600B9
:100C4E005608D10020006C082100D6005608D500A9
:100C5E002000EC016A082100D600D7015708D90000
:100C6E0020006B0821005602D800031CD903590836
:100C7E00803ADA0080305A02031D472E1A3058028D
:100C8E00031C4A2E4B2E8E2E2100510850044F0469
:100C9E004E04031D532E552E0130562E0030D60015
:100CAE0056082000EC0000302100D1000030D000AA
:100CBE000030CF000030CE0020006A082100D600A0
:100CCE0056082000EB00952E6C1C6E2E6F2E772E84
:100CDE006C3601382100D60056082000EC00792E23
:100CEE000310EC0C21004E1C7D2E7E2E802E20003B
:100CFE00EC1701302100D600D137D00CCF0CCE0C22
:100D0E00D60B832E0130D60056082000EB072000AC
:100D1E006A086B02031C942E952E6B2E691B982E5F
:100D2E00992EDA2E6B08031D9D2E9E2EA82E0030B6
:100D3E002100D1000030D0000030CF000030CE00B6
:100D4E00F12F21005208CE075308CF3D5408D03D55
:100D5E005508D13D511CB42EB52E702F20006C1CA1
:100D6E00B92EBA2EC22E6C3601382100D600560886
:100D7E002000EC00C42E0310EC0C21004E1CC82EDB
:100D8E00C92ECB2E2000EC1701302100D600D13712
:100D9E00D00CCF0CCE0CD60BCE2E0130D600560872
:100DAE002000EB07702F21005108803AD60055081D
:100DBE00803A5602031DED2E54085002031DED2EEF
:100DCE0053084F02031DED2E52084E020318F02E4B
:100DDE00F12E2B2FFF30D600FF30D700FF30D8007A
:100DEE00FF30D9004E085202DA004F08533BDB00A9
:100DFE005008543BDC005108553BDD005A08D6071D
:100E0E005B08D73D5C08D83D5D08D93D5908D10037
:100E1E005808D0005708CF005608CE008030D600B4
:100E2E0056082000E906EC09EC0A6C08031D202F79
:100E3E00212F332F01302100CE070030CF3D00305F
:100E4E00D03D0030D13D332F5208CE025308CF3B58
:100E5E005408D03B5508D13B2100510850044F0493
:100E6E004E04031D3B2F3C2F6B2F20006C08031DDF
:100E7E00412F422F6B2F00302100D1000030D000C7
:100E8E000030CF000030CE00F12F0130CE35CF0D27
:100E9E00D00DD10D890B4D2F2000EC1F572F582F41
:100EAE005A2F21004E1420006C1C5E2F5F2F622FD4
:100EBE000314EC0D642F0310EC0D6B080319682F4F
:100ECE00692F6B2F0130EB022100D01F6F2F702F77
:100EDE004C2F2000EA01EC1F752F762F862F6C0801
:100EEE007F3903197B2F7C2F802F2000EA01EA0A1D
:100EFE00862F21004E1C842F852F862F7C2F2000BD
:100F0E006A0803198B2F8C2FBD2F01302100CE07BD
:100F1E000030CF3D0030D03D0030D13D511C982FD8
:100F2E00992FBD2F4E08D6004F08D7005008D80075
:100F3E005108D9000130DA00D937D80CD70CD60CAD
:100F4E00DA0BA32F5908D1005808D0005708CF004C
:100F5E005608CE0020006B0A0319B62FB72FBD2FEF
:100F6E0001302100D60056082000EB0720006B0A46
:100F7E000319C22FC32FC82F6B08031DC72FC82FED
:100F8E00D82F00302100D1000030D0000030CF002B
:100F9E000030CE0020006B08031DD62FD72FD82F80
:100FAE00E9016B1CDB2FDC2FDF2F2100D017E42F84
:100FBE007F302100D6005608D00520006B36210068
:100FCE00D6005608D1002000E91FEE2FEF2FF12F8B
:100FDE002100D11708002000ED01EE01A0308400A1
:100FEE00003085002E309631E82687312000803182
:100FFE0030282100D1006830FD007D08D000510856
:10100E00FD007D08D200D301D401D501D601200008
:10101E006708DF006608DE00D030FD007D08E000C6
:10102E00D230883155208831210053085107FD00F8
:10103E007D088600870181010800FA007A08F50014
:10104E000330F535FF3E031D28287535F60076086A
:10105E00FA0000309731422788317A0897314227BB
:10106E00883104307A04F8000030F900780897319E
:10107E00422788310B30F5006230890B4428F50B7E
:10108E00442800327A08F500F6017508F800760853
:10109E00F900780897314227883108002000E300D4
:1010AE005F08E5005E08E4002100A301A401732897
:1010BE006430E1006108CE006008E2006208CF00F3
:1010CE0063088B31CE23883120004E082100A30700
:1010DE0020004F082100A43D20006408840065080C
:1010EE0085001200031D7C287D285F28210024081E
:1010FE002000DF00210023082000DE000800F7009A
:10110E0077080F39F5007508F9007908F5000330F6
:10111E00F535FF3E031D8F287535F6007608F9006C
:10112E007708F039F5007508F8000130973142273D
:10113E0088317808973142278831780805389731F9
:10114E00422788311A30890BAA28003278080138D4
:10115E0097314227883179089731422788317908AB
:10116E0005389731422788311A30890BBC28003256
:10117E0079080138973142278831080000309731BD
:10118E00422788313430FB00F230890BCC28FB0B20
:10119E00CC2803308831242088310D30FB00FC3000
:1011AE00890BD728FB0BD7280330883124208831B0
:1011BE001D30FB009130890BE228FB0BE22800006A
:1011CE000330883124208831023088312420883140
:1011DE00023088312420883108308831242088312B
:1011EE0000308831242088310C3088312420883119
:1011FE00003088312420883106308831242088310F
:10120E0008002000A0002003031D0E290F292D2900
:10121E007B087F3EFC007C08A3002308FC00043002
:10122E00FC36890B17297C08FD007D08A1002308D8
:10123E000F39FC007C08A200210888312420893156
:10124E0020002208883124208931502902302006BE
:10125E00031D3229332950297B08BF3EFC007C0830
:10126E00A3002308FC000430FC36890B3B297C08C4
:10127E00FD007D08A10023080F39FC007C08A200A8
:10128E002108883124208931200022088831242029
:10129E008931080072080319552956295B297208ED
:1012AE00031D5A295B296029700880310720893176
:1012BE009F297208033E8600870116000104031958
:1012CE0069296A2987297208033E86008701403FF3
:1012DE00F300413FF400720A86008701403FF5009B
:1012EE00413FF6007608803AF7007408803A77029C
:1012FE00031D8329730875020318862987299F29E0
:10130E007008F300720886008701720A8400850156
:10131E0000080107F4007408860087017308810035
:10132E00720A860087010130810741310318810A54
:10133E0008002000AB006D1CA529A629AE292B089C
:10134E00FC007C08F8002408803108208931200038
:10135E00A61BB229B329B8292608AA002508A90078
:10136E00BA29A901AA01A701A801CE292030F000AF
:10137E000030F10020002B08FC007C08F2008931BF
:10138E005121893101302000A7070030A83D2808DF
:10139E00803AFC002A08803A7C02031DD8292908CD
:1013AE002702031CDB29DC29BD2920006D18E0294A
:1013BE00E129E9292B08FC007C08F800240880317B
:1013CE00082089312000240897315B2789312000BD
:1013DE0029087007A4002A08713DA50008000030F6
:1013EE00FC000030FB000030FA000030F9007308FA
:1013FE007204710470040319052A062A472AFD0196
:10140E00FD0A142A0130F035F10DF20DF30D890BA2
:10141E000A2A0130F8007808FD07F31F172A182A48
:10142E00092A0130F935FA0DFB0DFC0D890B192A2D
:10143E0073087702031D2D2A72087602031D2D2ACA
:10144E0071087502031D2D2A70087402031C302AC0
:10145E00312A3A2A7008F4027108F53B7208F63BFD
:10146E007308F73B79140130F336F20CF10CF00CE3
:10147E00890B3B2A0130FD02031D462A472A182AF2
:10148E007C08F3007B08F2007A08F1007908F0007E
:10149E000800210099111916991619178B130B12A2
:1014AE000B1323008C018E0121008C018E01200074
:1014BE008C018E0122008C018E0121000C148C14E3
:1014CE000C150E128E120C160E158E150E148E1481
:1014DE0000302000A3000130A2008630A100A03011
:1014EE00A0009731D0278A3102302000A9000430A5
:1014FE00A800BA30890B812AA80B812AA90B812A50
:10150E0000008831C5208A319631FE268A31963107
:10151E00F5268A31FB01FB0A0130893108218A3117
:10152E002D30FA009830FB0097318E278A31153016
:10153E002000A9004B30A800BE30890BA42AA80BAE
:10154E00A42AA90BA42A0000080003102000600D95
:10155E00610DE2006208E8006808031DB72AB82A88
:10156E00C12A0030E1000030E0000030DF00003022
:10157E00DE00202B5E08E2005F08E3006008E40056
:10158E006108E5001F30E536E40CE30CE20C890B34
:10159E00CA2A6208E6006608E700E017FF30DE059B
:1015AE00FF30DF05FF30E0050030E1059630E80240
:1015BE00E81FE22AE32AFB2A6808803A973E0318BE
:1015CE00E92AEA2AEB2AB82A0130E136E00CDF0CD0
:1015DE00DE0C890BEC2A0130E2006208E807031DDD
:1015EE00F92AFA2AEB2A102B20306802031C002B52
:1015FE00012B0B2BB82A0130DE35DF0DE00DE10D8E
:10160E00890B032B0130E8026808031D0F2B102BEA
:10161E00022B67080319142B152B202BDE09DF096B
:10162E00E009E109DE0A0319DF0A0319E00A0319CA
:10163E00E10A08002000A40024080319272B282BF8
:10164E003C2BFC1F2B2B2C2B3C2B7909A6007A094B
:10165E00A7007B09A8007C09A900A60A0319A70AFE
:10166E000319A80A0319A90A442B7C08A9007B08B0
:10167E00A8007A08A7007908A6007C087B047A04E3
:10168E007904031D4B2B4C2B552B0030FC000030E6
:10169E00FB000030FA000030F900CD2B9630A00090
:1016AE002008A500652B0130A0002008A5070130F9
:1016BE00A936A80CA70CA60C890B5F2BFE302905AA
:1016CE00031D6A2B6B2B5A2B7F2B0130A000200899
:1016DE00A5070130A6070030A73D0030A83D003019
:1016EE00A93D0130A936A80CA70CA60C890B792BA5
:1016FE00FF302905031D842B852B6C2B8F2B01307E
:10170E00A5020130A635A70DA80DA90D890B892BB1
:10171E00A81B922B932B992B023025020318982B82
:10172E00992B862B25189C2B9D2BA52BFF30A605C0
:10173E00FF30A7057F30A805FF30A9050310A50CC3
:10174E002508A000A101A201A3011830A035A10D0A
:10175E00A20DA30D890BAD2B2008A6042108A7040A
:10176E002208A8042308A90424080319BF2BC02BA0
:10177E00C52BFC1FC32BC42BC52BA9172908FC0096
:10178E002808FB002708FA002608F90008002000A8
:10179E00DD004E0886008701403FD000413FD1005A
:1017AE0050088400510885001200253A031DE02BD5
:1017BE00E12B872C4E0886008701013081074131CD
:1017CE000318810A2100A501A6012000ED01EE01FA
:1017DE00FF302100A700FF30A80020004E08860031
:1017EE008701403FD000413FD1005008840051088E
:1017FE0085001200643A0319052C062C172C4E088E
:10180E0086008701403FD000413FD1005008840040
:10181E00510885001200693A031D162C172C522C04
:10182E004E08860087010130810741310318810A75
:10183E004F08860087010108840085010230810768
:10184E00003FD000013FD1005008D5005108D6000E
:10185E00890D893B8909D700D800D900DA00DB0051
:10186E00DC005508B0005608B1005708B200580801
:10187E00B3005908B4005A08B5005B08B6005C08FE
:10188E00B7005D088E3196268B3120003108CF00CF
:10189E003008CE00AA2C4E0886008701403FD000AB
:1018AE00413FD10050088400510885001200253AAE
:1018BE00031D622C632C7C2C4E08860087010130A0
:1018CE00810741310318810A2530F0000030F10004
:1018DE005D08D0005008F200893151218B31013062
:1018EE002000CE000030CF00AA2C4E0886008701C3
:1018FE000130810741310318810ACE01CF01AA2C94
:10190E004E0886008701403FD000413FD10050086D
:10191E008400510885000008D200D3015208F0005F
:10192E005308F1005D08D4005408F20089315121AA
:10193E008B3120004E08860087010130810741312E
:10194E000318810A762C0800F20128308600003038
:10195E008700473FF000F01FB52CB62CD72C200087
:10196E00A809A909AA09AB09AC09AD09AE09AF09C5
:10197E00A80A031DD52CA90A031DD52CAA0A031DDE
:10198E00D52CAB0A031DD52CAC0A031DD52CAD0AE4
:10199E00031DD52CAE0A031DD52CAF0AF201F20A97
:1019AE002030860000308700473FF000F01FE02C0B
:1019BE00E12C002D2000A009A109A209A309A40968
:1019CE00A509A609A709A00A031D002DA10A031D3A
:1019DE00002DA20A031D002DA30A031D002DA40A2B
:1019EE00031D002DA50A031D002DA60A031D002DA3
:1019FE00A70A20002008210422042304240425041D
:101A0E002604270403190C2D0D2D602DF101F10A6A
:101A1E001C2DA035A10DA20DA30DA40DA50DA60D77
:101A2E00A70D0130F0007008F107A71F1F2D202D04
:101A3E00102D27082F02031D3E2D26082E02031DF2
:101A4E003E2D25082D02031D3E2D24082C02031DBC
:101A5E003E2D23082B02031D3E2D22082A02031DB4
:101A6E003E2D21082902031D3E2D20082802031CAD
:101A7E00412D422D522D2008A8022108A93B2208F3
:101A8E00AA3B2308AB3B2408AC3B2508AD3B2608FC
:101A9E00AE3B2708AF3BA736A60CA50CA40CA30C97
:101AAE00A20CA10CA00C0130F102031D5F2D602DC4
:101ABE00202D72080319642D652D832DA809A909FF
:101ACE00AA09AB09AC09AD09AE09AF09A80A031DF5
:101ADE00832DA90A031D832DAA0A031D832DAB0A8C
:101AEE00031D832DAC0A031D832DAD0A031D832D0B
:101AFE00AE0A031D832DAF0A20002808A000290876
:101B0E00A1002A08A2002B08A3002C08A4002D086F
:101B1E00A5002E08A6002F08A7000800F20120300D
:101B2E00860000308700473FF000F01F9F2DA02D4C
:101B3E00C12D2000A009A109A209A309A409A50984
:101B4E00A609A709A00A031DBF2DA10A031DBF2DBB
:101B5E00A20A031DBF2DA30A031DBF2DA40A031D38
:101B6E00BF2DA50A031DBF2DA60A031DBF2DA70A53
:101B7E00F201F20A2830860000308700473FF0005D
:101B8E00F01FCA2DCB2DEE2D2000A809A909AA09F8
:101B9E00AB09AC09AD09AE09AF09A80A031DEA2DC0
:101BAE00A90A031DEA2DAA0A031DEA2DAB0A031D7D
:101BBE00EA2DAC0A031DEA2DAD0A031DEA2DAE0A6D
:101BCE00031DEA2DAF0A0130F0007008F2067330E3
:101BDE008600003087000830F00000301E00F00B49
:101BEE00F52D2000200821042204230424042504BA
:101BFE00260427040319042E052E612EF101F10A85
:101C0E00142EA035A10DA20DA30DA40DA50DA60D8C
:101C1E00A70D0130F0007008F107A71F172E182E20
:101C2E00082EF335F40DF50DF60DF70DF80DF90D33
:101C3E00FA0D27082F02031D3E2E26082E02031D25
:101C4E003E2E25082D02031D3E2E24082C02031DB8
:101C5E003E2E23082B02031D3E2E22082A02031DB0
:101C6E003E2E21082902031D3E2E20082802031CA9
:101C7E00412E422E532E2008A8022108A93B2208ED
:101C8E00AA3B2308AB3B2408AC3B2508AD3B2608FA
:101C9E00AE3B2708AF3B7314A736A60CA50CA40CBD
:101CAE00A30CA20CA10CA00C0130F102031D602E9E
:101CBE00612E182E72080319652E662E842EF309D6
:101CCE00F409F509F609F709F809F909FA09F30A09
:101CDE00031D842EF40A031D842EF50A031D842E83
:101CEE00F60A031D842EF70A031D842EF80A031D1F
:101CFE00842EF90A031D842EFA0A73082000A00010
:101D0E007408A1007508A2007608A3007708A40045
:101D1E007808A5007908A6007A08A7000800200018
:101D2E00BD003008C4003108C5003208C6003308B3
:101D3E00C7003408C8003508C9003608CA0037087D
:101D4E00CB004430860000308700473FB800B81BF8
:101D5E00B12EB32E0130B42E00302000B900BA01DE
:101D6E003908C2003A08C300420843040319C02EC2
:101D7E00C12EDF2EC409C509C609C709C809C9097C
:101D8E00CA09CB09C40A031DDF2EC50A031DDF2EA7
:101D9E00C60A031DDF2EC70A031DDF2EC80A031D48
:101DAE00DF2EC90A031DDF2ECA0A031DDF2ECB0A42
:101DBE002100A81BE32EE42EE92EFD302000ED05B8
:101DCE00FF30EE0521002808803A2000B800803050
:101DDE003802031DF52E0130210027020318F82EBC
:101DEE00F92EFF2E01302000BE000030BF00072F5D
:101DFE00210028082000BF00210027082000BE0077
:101E0E00210026082000C100210025082000C00066
:101E1E0042084304031D142F152F192F6D1D182F63
:101E2E00192F1D2FFF30C007FF30C13D1F30CC00D2
:101E3E000030CD002100CA018C2FFF302000CC07CE
:101E4E00FF30CD3D0A30A000A101A201A301A401E3
:101E5E00A501A601A7014408A8004508A900460847
:101E6E00AA004708AB004808AC004908AD004A0874
:101E7E00AE004B08AF008C31AB248E312000210810
:101E8E00F4002008F300973174278E317308303E2A
:101E9E002000B8004C08AB3E860087013808810050
:101EAE00FF30BE07FF30BF3DFF30C007FF30C13DE2
:101EBE000A30A000A101A201A301A401A501A6015F
:101ECE00A7014408A8004508A9004608AA0047082B
:101EDE00AB004808AC004908AD004A08AE004B08FC
:101EEE00AF008D3195258E3120002008C4002108C9
:101EFE00C5002208C6002308C7002408C80025080C
:101F0E00C9002608CA002708CB0020004D08803AD9
:101F1E00B80080303802031D962F01304C02031C8E
:101F2E00992F9A2FC72F20004408450446044704D2
:101F3E00480449044A044B04031DA62FA72F242F3F
:101F4E003F08803AB80080303802031DB02F0130B0
:101F5E003E020318B32FB42F242F20004108803ADD
:101F6E00B80080303802031DBE2F01304002031C22
:101F7E00C12FC22FC72F2000ED18C62FC72F242F19
:101F8E00200042084304031DCD2FCE2FD22F6D1DEE
:101F9E00D12FD22FED2FFF30CC07FF30CD3D420891
:101FAE004304031DDB2FDC2FE12F2B30BB00003051
:101FBE00BC00E52F2D30BB000030BC003B08B80044
:101FCE004C08AB3E86008701380881004C08AB3EBA
:101FDE00B8003808A4004108A6004008A5003D0836
:101FEE008931A0218E3120002508B1002408B000CF
:021FFE000800D9
:102DB80097311127963124001614080097311127EE
:102DC8009631240016150800640080010131890B32
:102DD800E92E0034973111279631700824009100AC
:102DE800080000308831242096310C3088312420A6
:102DF800963108000030883124209631013088311E
:102E080024209631080021000C1623000C160D30E2
:102E180021009D0008309E00080024001419152F79
:102E2800162F112F16081F39031D1B2F1C2F112FAA
:102E380008000D3021009D004230890B212F0032FF
:102E480021009D149D18292F2A2F262F1C080800C1
:102E580021008C162000911022001E140C30250031
:102E68009A009E019C01653020009B002500980176
:102E7800043020009C0021008C120800F4009631D8
:102E8800DC2697317030F0000030F1009631EE26E4
:102E980097317408F200F3017208F0007308F1002A
:102EA8009631EE2697319631E22697310800F400E4
:102EB8007408F2007208F300652F0130F2007208FE
:102EC800F4077408860087010108031D6C2F6D2F15
:102ED800612F73087402F000F101F01BF103080080
:102EE8007408803AF50080307502031D7D2F01308B
:102EF80073020318802F812F8D2F7309F500740931
:102F0800F600F50A0319F60A7508F3007608F400C6
:102F18008D2F08002000A001A101A12F7A08200709
:102F280084007B08213D8500000888318620973180
:102F380001302000A0070030A13D7A082007840056
:102F48007B08213D85001200031DAB2FAC2F922F6B
:102F58000800F800F401F5017008F200F3017208A6
:102F6800F6007308F700781CBA2FBB2FBF2F76081E
:102F7800F4077708F53D0130F635F70D890BC02FBA
:102F88000310F80C7808031DCA2FCB2FB72F75082C
:102F9800F1007408F000080028302400950096011C
:102FA80020002008A4002108A5002208A600230864
:102FB800A7000230A435A50DA60DA70D890BDE2F9D
:102FC8002708F3002608F2002508F1002408F0007D
:102FD8000030F7007A30F6001230F5000030F400C7
:102FE8008931F62197317008FF3E24009200940140
:102FF80021000E148E1408004D3449344E345534D3
:10300800533420343D343D34203450345534533413
:10301800483445344434003450344C3455345334F3
:1030280020343D343D3420345034553453344834FE
:1030380045344434003453345334543420343D3408
:103048003D342034503455345334483445344434B2
:1030580000345034613475346C34203449346F345E
:1030680072346734613400342534643420342034B5
:0630780020342034003476
:020000040001F9
:04000E00E4C9FFFC46
:00000001FF
