:020000040000FA
:08000000803102288731FA2F3C
:100B50008531D32585312400161408008531D3252D
:100B6000853124001615080087319D278531B72D62
:100B7000803102288531D325853170082400910009
:100B8000080000308631472685310C3086314726F3
:100B900085310800003086314726853101308631A5
:100BA00047268531080024001419D72DD82DD32DC0
:100BB00016081F39031DDD2DDE2DD32D0800F4008E
:100BC0008531A82585317030F0000030F100853185
:100BD000BA2585317408F200F3017208F000730839
:100BE000F1008531BA2585318531AE258531080082
:100BF0002000A001A1010B2E7A08200784007B08A9
:100C0000213D85000008863178268531013020009D
:100C1000A0070030A13D7A08200784007B08213D11
:100C200085001200031D152E162EFC2D08002830FD
:100C300024009500960120002008A4002108A500AA
:100C40002208A6002308A7000230A435A50DA60D92
:100C5000A70D890B252E2708F3002608F20025088A
:100C6000F1002408F0000030F7007A30F60012306E
:100C7000F5000030F4008731432786317008FF3ECD
:100C800024009200940121000E148E140800FA0032
:100C90007A08F5000330F535FF3E031D4B2E753500
:100CA000F6007608FA0000308531DF2586317A08B3
:100CB0008531DF25863104307A04F8000030F900F0
:100CC00078088531DF2586310B30F5006230890BDD
:100CD000672EF50B672E00327A08F500F6017508CD
:100CE000F8007608F90078088531DF25863108009C
:100CF000F70077080F39F5007508F9007908F50055
:100D00000330F535FF3E031D812E7535F60076085C
:100D1000F9007708F039F5007508F80001308531E1
:100D2000DF25863178088531DF258631780805385A
:100D30008531DF2586311A30890B9C2E00327808E8
:100D400001388531DF25863179088531DF25863107
:100D5000790805388531DF2586311A30890BAE2EAA
:100D60000032790801388531DF25863108000030EE
:100D70008531DF2586313430FB00F230890BBE2E01
:100D8000FB0BBE2E03308631472686310D30FB002B
:100D9000FC30890BC92EFB0BC92E03308631472648
:100DA00086311D30FB009130890BD42EFB0BD42EE5
:100DB00000000330863147268631023086314726CF
:100DC0008631023086314726863108308631472603
:100DD000863100308631472686310C3086314726F1
:100DE00086310030863147268631063086314726E7
:100DF000863108002000A0002003031D002F012FD2
:100E00001F2F7B087F3EFC007C08A3002308FC000A
:100E10000430FC36890B092F7C08FD007D08A100F9
:100E200023080F39FC007C08A200210886314726E0
:100E3000863120002208863147268631422F023033
:100E40002006031D242F252F422F7B08BF3EFC00C8
:100E50007C08A3002308FC000430FC36890B2D2FEE
:100E60007C08FD007D08A10023080F39FC007C08E8
:100E7000A2002108863147268631200022088631CB
:100E80004726863108000030FC000030FB000030AF
:100E9000FA000030F9007308720471047004031939
:100EA000522F532F942FFD01FD0A612F0130F03591
:100EB000F10DF20DF30D890B572F0130F800780872
:100EC000FD07F31F642F652F562F0130F935FA0DFA
:100ED000FB0DFC0D890B662F73087702031D7A2F1B
:100EE00072087602031D7A2F71087502031D7A2F8E
:100EF00070087402031C7D2F7E2F872F7008F40268
:100F00007108F53B7208F63B7308F73B7914013022
:100F1000F336F20CF10CF00C890B882F0130FD0236
:100F2000031D932F942F652F7C08F3007B08F2009C
:100F30007A08F1007908F0000800210099111916CB
:100F4000991619178B130B120B1323008C018E01AA
:100F500021008C018E0120008C018E0122008C0169
:100F60008E0121000C148C140C150E128E128C1292
:100F70000C160E118E110E148E1400302000A300DA
:100F80000130A2008630A100A030A00086311726D3
:100F9000873102302000A9000430A800BA30890B44
:100FA000CF2FA80BCF2FA90BCF2F00008631B7264C
:100FB00087318531CA2587318531C1258731FB01CC
:100FC000FB0A01308631FA2687310030FA0088307A
:100FD000FB008531F825873115302000A9004B3002
:100FE000A800BE30890BF22FA80BF22FA90BF22F0D
:100FF000000008002000AA01AB0120008531B42DBB
:101000005034613475346C34203449346F34723464
:0610100067346134003476
:020000040001F9
:04000E00E4C9FFFC46
:00000001FF
