:020000040000FA
:08000000803102288731E52F51
:10000C00080021000C160E158E1523000C160E156B
:10001C008E150D3021009D0028309E000800230015
:10002C003B082000ED0023003A082000EC002300E0
:10003C0039082000EB00230038082000EA005D0896
:10004C00ED005C08EC005B08EB005A08EA006A085B
:10005C00DE006B08DF006C08E0006D08E100173073
:10006C00E136E00CDF0CDE0C890B3628FF305E0528
:10007C00E20000305F05E3006208813EE800FF30DB
:10008C00633DE9006908803ADE0080305E02031DA2
:10009C00512817306802031C542855285628FF286D
:1000AC002000E91B5A285B28B828FF30DE00FF30FF
:1000BC00DF007F30E0000030E100680A6928E1379A
:1000CC00E00CDF0CDE0C890B65286108E70060088A
:1000DC00E6005F08E5005E08E4006A086405DE00DF
:1000EC006B086505DF006C086605E0006D086705A8
:1000FC00E100610860045F045E04031D8628872804
:10010C00882855286A08DE006B08DF006C08E000C0
:10011C006D08E1001F30E136E00CDF0CDE0C890BC2
:10012C009128610860045F045E0403199E289F28CF
:10013C00A7286408EA076508EB3D6608EC3D6708EC
:10014C00ED3D6409DE006509DF006609E000670922
:10015C00E1005E08EA055F08EB056008EC05610844
:10016C00ED05F7286A08DE006B08DF006C08E0007C
:10017C006D08E1001F30E136E00CDF0CDE0C890B62
:10018C00C128610860045F045E04031DCE28CF28DB
:10019C00D8280030ED000030EC000030EB000030CF
:1001AC00EA00F7286A08DE006B08DF006C08E00044
:1001BC006D08E1000130DE35DF0DE00DE10D890B3E
:1001CC00E128610860045F045E040319EE28EF283F
:1001DC00F728BF30ED008030EC000030EB00003031
:1001EC00EA006D08DD006C08DC006B08DB006A08B7
:1001FC00DA0008002100CD00CB01CC012B08E10076
:10020C002A08E0002908DF002808DE006108200029
:10021C00C300210060082000C20021005F082000FC
:10022C00C10021005E082000C0000030C700003073
:10023C00C6000030C5000030C40091318A218131E4
:10024C00031829292A29432901302100CB00003029
:10025C00CC006108F3006008F2005F08F1005E0852
:10026C00F0009A311D22813173082100E1007208DF
:10027C00E0007108DF007008DE002100E401E501F8
:10028C00220060082100D20022005F082100D1006A
:10029C004B084C04031D5329542959292200631D72
:1002AC0058295929772921004B084C04031D5F2933
:1002BC00602965292B30B5000030B60069292D3036
:1002CC00B5000030B6003508AD002D082400A000A4
:1002DC0001302100E4070030E53DFF30D107FF304D
:1002EC00D23D21006108F3006008F2005F08F100C4
:1002FC005E08F00091310B21813170037104031DF4
:10030C0088298929DB2921002C08BF3EAD00FF304C
:10031C0003180030AE0000302E021A3003192D02E3
:10032C00031C99299B2901309C290030AF00B00196
:10033C002F08B7003008B800370838040319A7296C
:10034C00A829B2293930F0009830F1006408203E19
:10035C009B310C238131BB294130F0009830F100E6
:10036C006408203E9B310C238131FD302100D107E4
:10037C00FF30D23D2030AD002D082000A40021001C
:10038C0052082000A600210051082000A5002100E1
:10039C004D089E31F2268131200025082100A9004C
:1003AC00200024082100A800E42F21006108F3009C
:1003BC006008F2005F08F1005E08F00091310B213B
:1003CC00813170087104031DEC29ED293F2A2100AD
:1003DC002C08BF3EAD00FF3003180030AE000030DB
:1003EC002E021A3003192D02031CFD29FF2901309E
:1003FC00002A0030AF00B0012F08B9003008BA0055
:10040C0039083A0403190B2A0C2A162A3D30F0003D
:10041C009830F1006408203E9B310C2381311F2A57
:10042C004530F0009830F1006408203E9B310C23DD
:10043C008131FD302100D107FF30D23D2030AD009D
:10044C002D082000A400210052082000A600210045
:10045C0051082000A50021004D089E31F226813163
:10046C00200025082100A900200024082100A80054
:10047C00E42F3F302100E9008030E8000030E70035
:10048C000030E600E201E3016108F3006008F200CD
:10049C005F08F1005E08F0000030F7000030F60055
:1004AC000030F5000030F4009D31FB25813103183C
:1004BC00602A612A252B922A41302000A900203085
:1004CC00A8000030A7000030A60021006908200019
:1004DC00AD00210068082000AC0021006708200056
:1004EC00AB00210066082000AA009531A9258131B6
:1004FC00200029082100E900200028082100E8003C
:10050C00200027082100E700200026082100E60033
:10051C000130E2070030E33D210061082000C300F8
:10052C00210060082000C20021005F082000C100EB
:10053C0021005E082000C0004130A9002030A80036
:10054C000030A7000030A600210069082000AD0093
:10055C00210068082000AC00210067082000AB00D7
:10056C00210066082000AA009531A92581312000C0
:10057C002908C7002808C6002708C5002608C4009B
:10058C0091318A2181310318CC2ACD2A622AFE2A84
:10059C0041302000C3002030C2000030C1000030C8
:1005AC00C000210069082000C70021006808200055
:1005BC00C600210067082000C50021006608200045
:1005CC00C400883161208131200043082100E900FA
:1005DC00200042082100E800200041082100E7002B
:1005EC00200040082100E600FF30E207FF30E33D29
:1005FC00210061082000C300210060082000C20017
:10060C0021005F082000C10021005E082000C0000E
:10061C00210069082000C700210068082000C600DE
:10062C00210067082000C500210066082000C400D6
:10063C0091318A218131031C242B252BCE2A2100B8
:10064C002C08AD00AE012D08F6002E08F7009B31EA
:10065C007423813176082100AF002F08D300530892
:10066C00AD002D08D00067305306031D3E2B3F2BE9
:10067C00682B220061086204031D452B462B4A2B74
:10068C000130E1000030E2006208803A2100AD0048
:10069C0080302D02031D552B0130220061020318FE
:1006AC00582B592B5F2B06302100CE000030CF0089
:1006BC006E2B220062082100CF002200610821006D
:1006CC00CE006E2B2200E21B6C2B6D2B592B5F2B5B
:1006DC0067305306031D732B742BA12B6308803AD0
:1006EC00AD007F302D02031D7D2BFC306202031CFC
:1006FC00802B812B9C2B21004E08FF3EAD00FF3040
:10070C004F3DAE002E08803AAF006308803A2F02AE
:10071C00031D922B62082D02031C952B962B9C2BF0
:10072C0066302100AD002D08D000A12B65302100D2
:10073C00AD002D08D0004F08C6004E08C50067302C
:10074C005306031DAA2BAB2BB52B66305006031D8D
:10075C00B02BB12BB92BE31FB42BB52BB92B01301C
:10076C00C5070030C63D66305006031DBE2BBF2B9F
:10077C00D72BE31FC22BC32BCD2B3F30E90080308E
:10078C00E8000030E7000030E600E201E3016730EA
:10079C0053060319D22BD32BD72B6208C50763083A
:1007AC00C63DDC01DD016108D7006008D6005F089A
:1007BC00D5005E08D4006908B4006808B300670867
:1007CC00B2006608B100AF2C210069082000C300FC
:1007DC00210068082000C200210067082000C10029
:1007EC00210066082000C000210057082000C70027
:1007FC00210056082000C600210055082000C50025
:10080C00210054082000C40088316120813120006F
:10081C004308DD004208DC004108DB004008DA0038
:10082C0080311520813120005D082100DB00200083
:10083C005C082100DA0020005B082100D9002000B0
:10084C005A082100D8005B08F3005A08F200590836
:10085C00F1005808F0009031972081317108210087
:10086C00CA007008C9005B082000AD0021005A08BE
:10087C002000AC00210059082000AB0021005808D2
:10088C002000AA00210069082000A90021006808A6
:10089C002000A800210067082000A700210066089E
:1008AC002000A6009531A9258131200029082100BE
:1008BC00A300200028082100A20020002708210006
:1008CC00A100200026082100A0005708A700560808
:1008DC00A6005508A5005408A400903105208131CC
:1008EC0021002308D7002208D6002108D5002008B3
:1008FC00D40041302000C3002030C2000030C100C1
:10090C000030C000210069082000C70021006808E1
:10091C002000C600210067082000C50021006608E1
:10092C002000C4008831612081312000430821005F
:10093C00E900200042082100E800200041082100C5
:10094C00E700200040082100E6000130DC07003001
:10095C00DD3D5D08803AAD004608803A2D02031D4E
:10096C00B92C45085C02031CBC2CBD2CEA2B403076
:10097C002000A900A030A8000030A7000030A6007D
:10098C00210069082000AD00210068082000AC009F
:10099C00210067082000AB00210066082000AA0097
:1009AC009531A9258131200029082100DB00200088
:1009BC0028082100DA00200027082100D900200097
:1009CC0026082100D80057082000C3002100560833
:1009DC002000C200210055082000C100210054084D
:1009EC002000C00021005B082000C70021005A082D
:1009FC002000C600210059082000C500210058081D
:100A0C002000C40091318A21813103180E2D0F2D45
:100A1C00192D00302100DB000030DA000030D90045
:100A2C000030D8003E2D21005708F3005608F20084
:100A3C005508F1005408F0005B08F7005A08F6005E
:100A4C005908F5005808F4009D31FB258131031C31
:100A5C00302D312D3E2D21004918352D362D3E2DB2
:100A6C000030DB000030DA000030D9000030D80054
:100A7C0021005B082000DD0021005A082000DC006A
:100A8C00210059082000DB00210058082000DA0062
:100A9C00210061082000E100210060082000E00036
:100AAC0021005F082000DF0021005E082000DE002E
:100ABC0093317123813120005D082100D700200083
:100ACC005C082100D60020005B082100D500200026
:100ADC005A082100D4003408E9003308E800320831
:100AEC00E7003108E6006530500603197E2D7F2D96
:100AFC00842D6308C8006208C700862DC701C80191
:100B0C00C301C401C101C201DC01DD01BF2E210002
:100B1C0069082000C300210068082000C2002100E1
:100B2C0067082000C100210066082000C0002100D9
:100B3C0057082000C700210056082000C6002100DD
:100B4C0055082000C500210054082000C40088313D
:100B5C006120813120004308DD004208DC0041089F
:100B6C00DB004008DA0080311520813120005D085F
:100B7C002100DB0020005C082100DA0020005B086B
:100B8C002100D90020005A082100D8005B08F3008E
:100B9C005A08F2005908F1005808F00090319720DB
:100BAC00813171082100CA007008C9002200631A43
:100BBC00E02DE12DF72D210049084A04031DE72DF6
:100BCC00E82DF72D67305306031DED2DEE2DF72D77
:100BDC00C81FF12DF22DF72D0130C1070030C23D99
:100BEC00452E210043084404031DFD2DFE2D2D2E02
:100BFC00C81F012E022E2D2E2E30AD006408203E73
:100C0C008600023087002D0881000130E407003097
:100C1C00E53DFF30D107FF30D23D0130C30000303D
:100C2C00C4002D2E3030AD006408203E860002300A
:100C3C0087002D0881000130E4070030E53DFF30CE
:100C4C00D107FF30D23DFF30C107FF30C23D410814
:100C5C004204031D322E332E182E4908303EAD00AF
:100C6C006408203E8600023087002D088100013088
:100C7C00E4070030E53DFF30D107FF30D23D5B0883
:100C8C002000AD0021005A082000AC0021005908BA
:100C9C002000AB00210058082000AA0021006908A0
:100CAC002000A900210068082000A8002100670886
:100CBC002000A700210066082000A6009531A92578
:100CCC008131200029082100A300200028082100E0
:100CDC00A200200027082100A100200026082100E6
:100CEC00A0005708A7005608A6005508A5005408F0
:100CFC00A40090310520813121002308D70022085F
:100D0C00D6002108D5002008D40041302000C300B3
:100D1C002030C2000030C1000030C0002100690842
:100D2C002000C700210068082000C60021006708C9
:100D3C002000C500210066082000C4008831612015
:100D4C008131200043082100E900200042082100E5
:100D5C00E800200041082100E700200040082100A5
:100D6C00E600FF30C707FF30C83D0130DC0700301C
:100D7C00DD3D5D08803AAD004608803A2D02031D2A
:100D8C00C92E45085C020318CC2ECD2EDB2E21007B
:100D9C006508803AAD0080302D02031DD72E4B30F4
:100DAC006402031CDA2EDB2E8D2D21004308440433
:100DBC00031DE12EE22EF52E2200631EE62EE72EF9
:100DCC00F52E2E302100AD006408203E8600023046
:100DDC0087002D0881000130E4070030E53D21003B
:100DEC006408203E86000230870081016530500681
:100DFC00031D012F022FC92F4F30DC000030DD0006
:100E0C005C08203E8600023087008101CB01CC01BA
:100E1C00E31F112F122F1B2F0130CB000030CC0001
:100E2C00E209E309E20A0319E30A0230CE000030BA
:100E3C00CF00532FFF302100DC07FF30DD3D0A309F
:100E4C00F0000030F1006308F3006208F2009E31FC
:100E5C00492681317008303E2100AD005C08203EEF
:100E6C008600023087002D0881000A30F000003027
:100E7C00F1006308F3006208F2008831022081312E
:100E8C0071082100E3007008E200FF30CE07FF304C
:100E9C00CF3DFF30D107FF30D23D62086304031D04
:100EAC00582F592F202F4F08803AAD0080302D023B
:100EBC00031D622F01304E020318652F662F202F61
:100ECC00FF302100DC07FF30DD3D4B084C04031DD7
:100EDC00702F712F762F2B30BB000030BC007A2F77
:100EEC002D30BB000030BC003B08AD005C08203E40
:100EFC008600023087002D088100FF30D107FF30BB
:100F0C00D23DFF30DC07FF30DD3D2C08BF3EAD008D
:100F1C00FF3003180030AE0000302E021A300319D7
:100F2C002D02031C9A2F9C2F01309D2F0030AF00F7
:100F3C00B0012F08BF003008C0003F084004031D5B
:100F4C00A82FA92FAE2F6530BD000030BE00B22FE8
:100F5C004530BD000030BE003D08AD005C08203EB1
:100F6C008600023087002D088100FF30D107FF304A
:100F7C00D23D5C08203EF0000230F1006408203EB7
:100F8C009B310C23813120302100AD002D08200035
:100F9C00A400210052082000A600210051082000C6
:100FAC00A50021004D089E31F22681312000250834
:100FBC002100A900200024082100A80008005130BD
:100FCC008400013085001F309931FE218731A0301B
:100FDC0084000130850033309931FE218731203077
:100FEC0084000230850050309931FE218731200079
:040FFC008A31152AF7
:10100400F601F11F062807280E28F009F109F00A55
:101014000319F10AF601F60AF31F112812281B28F6
:10102400F209F309F20A0319F30A0130F40074080F
:10103400F606F701F8017008710403192228232821
:101044005228F501F50A2F280130F035F10D890BEE
:1010540027280130F4007408F507F11F32283328DB
:1010640026280130F735F80D890B342871087302EE
:10107400031D3E2870087202031C41284228472899
:101084007008F2027108F33B77140130F136F00C6A
:10109400890B48280130F502031D512852283328B2
:1010A40076080319562857285C28F709F809F70A1F
:1010B4000319F80A7808F1007708F0000800200006
:1010C40047088039C8004808D1004735C800480897
:1010D400D800C61F6E286F287028581458080319A2
:1010E400742875288528580A031D79287A288228A7
:1010F4000030C7000030C6000030C5000030C40016
:10110400C617C7018D280030C7000030C600003064
:10111400C5000030C40043088039C8004808D1061F
:101124004335C8004808D900C21F99289A289B282B
:101134005914590803199F28A028B028590A031DD7
:10114400A428A528AD280030C3000030C200003018
:10115400C1000030C000C217C301B8280030C3006A
:101164000030C2000030C1000030C0004308420417
:1011740041044004031DBF28C028D9280030C700FB
:101184000030C6000030C5000030C4008030C60402
:101194007F30C7045108C8004808C7044708C30083
:1011A4004608C2004508C1004408C000142A580873
:1011B400031DDD28DE28E7280030C3000030C2000C
:1011C4000030C1000030C000142A5808C800C9010A
:1011D4004908CB0059084802CA00031CCB034A083B
:1011E4007F3ED20000304B3DD3004708D000460874
:1011F400CF004508CE004408CD000030C7000030C1
:10120400C6000030C5000030C4000030D7000030F4
:10121400D6000030D5000030D400D9014F29590838
:1012240003191529162930290130CD35CE0DCF0DDE
:10123400D00D890B17290130C435C50DC60DC70D56
:10124400890B1E29D71F272928292929441401304D
:10125400D435D50DD60DD70D890B2A294308500254
:10126400031D3E2942084F02031D3E2941084E0238
:10127400031D3E2940084D02031C412942294B29E4
:1012840057174008CD024108CE3B4208CF3B4308E4
:10129400D03B0130C8004808D9071A305902031C52
:1012A40054295529112950084F044E044D0403199B
:1012B4005C295D297629541476290130C435C50D7D
:1012C400C60DC70D890B6029D71F69296A296B29A7
:1012D40044140130D435D50DD60DD70D890B6C29A6
:1012E400FF30D207FF30D33DC61F79297A295F2901
:1012F400D901D71F7E297F299B29FF305405C800B7
:10130400FF305505C900FF305605CA007F30570528
:10131400CB004B084A044904480403199229932931
:101324009629D901D90A9B29441C99299A299B29D0
:101334009329590803199F29A029C8290130C407F2
:101344000030C53D0030C63D0030C73D471CAB29C9
:10135400AC29C8294408C8004508C9004608CA0081
:101364004708CB000130CC00CB37CA0CC90CC80CE1
:10137400CC0BB6294B08C7004A08C6004908C5006B
:101384004808C4000130D2070030D33D5308803AE6
:10139400C80080304802031DD129FF305202031CCB
:1013A400D429D529E229FF302000D2000030D3000F
:1013B4000030C7000030C6000030C5000030C40053
:1013C40020005308803AC80080304802031DEC29ED
:1013D400013052020318EF29F029FC292000D20120
:1013E400D3010030C7000030C6000030C500003013
:1013F400C400D10120005208C8004808D800581C75
:10140400042A052A072AC6170B2A7F30C800480871
:10141400C6055836C8004808C7005108C80048081F
:10142400C704D028080090313B208A319A313422F5
:101434008A31803107208A312500980122000E125A
:101444008E169A3114228A312200CF01D0019D31A7
:1014540067258A319D311D258A319D31B1258A3117
:1014640001302200CF070030D03D5008803AC70039
:1014740080304702031D402A1E304F02031C432ABA
:10148400442A292AC3302000DD008830DC00C03023
:10149400DB000030DA003C30C3002330C200D73018
:1014A400C1000A30C0003C30A9009F30A800FD30C4
:1014B400A7006130A6009D3167258A312200C7004C
:1014C400C801C901CA014A08F9004908F8004808D6
:1014D400F7004708F6000130923115228A31790865
:1014E4002000AD007808AC007708AB007608AA00AD
:1014F4009531A9258A3120002908C7002808C6008B
:101504002708C5002608C400883161208A312000DC
:101514004308E1004208E0004108DF004008DE0023
:10152400933171238A3120005D082200DC00200001
:101534005C082200DB0020005B082200DA002000A7
:101544005A082200D90041302000C3003030C200C4
:101554000030C1000030C0003C30A9009F30A8001A
:10156400FD30A7006130A6009D311D258A3122007F
:10157400C700C801C901CA014A08F9004908F800AE
:101584004808F7004708F6000130923115228A31E5
:1015940079082000AD007808AC007708AB00760825
:1015A400AA009531A9258A3120002908C7002808F6
:1015B400C6002708C5002608C400883161208A3186
:1015C400200043082200CE00200042082200CD0063
:1015D400200041082200CC00200040082200CB005B
:1015E4003D302000C300E130C2004730C100AE30BE
:1015F400C00022004E082000C70022004D08200031
:10160400C60022004C082000C50022004B08200020
:10161400C400883161208A31200043082200D800A8
:10162400200042082200D700200041082200D600F2
:10163400200040082200D5003E302000C300803046
:10164400C2000030C1000030C0003C30A9009F300F
:10165400A800FD30A7006130A6009D31B1258A3174
:101664002200C700C801C901CA014A08F900490893
:10167400F8004808F7004708F600013092311522B7
:101684008A3179082000AD007808AC007708AB00F7
:101694007608AA009531A9258A3120002908C700B7
:1016A4002808C6002708C5002608C4008831612020
:1016B4008A31200043082200D4002000420822007E
:1016C400D300200041082200D2002000400822005C
:1016D400D100FB01FB0A01309C31D4248A31333020
:1016E4002200B7009830B8005408BC005308BB006F
:1016F4005208BA005108B900CE309B3150238A31C8
:10170400CE30FA000130FB009A31AD228A315230DA
:10171400FA009830FB009A31AD228A310C30220055
:10172400C7004708FB0001309C31D4248A31333090
:101734002200B7009830B8005808BC005708BB0016
:101744005608BA005508B900CE309B3150238A316F
:10175400CE30FA000130FB009A31AD228A314C3090
:10176400FA009830FB009A31AD228A31FB01FB0A62
:1017740002309C31D4248A3133302200B7009830AF
:10178400B8005C08BC005B08BB005A08BA005908E2
:10179400B900CE309B3150238A31CE30FA0001306B
:1017A400FB009A31AD228A314F30FA009830FB00A9
:1017B4009A31AD228A3102302200C8000430C700B9
:1017C400BA30890BE32BC70BE32BC80BE32B0000C8
:1017D40020000C1CEE2BEF2B1B2C22006F08031D8A
:1017E400F42BF52B092C5030250098002200EF0132
:1017F400EF0A0B302200C8002630C7005D30890B89
:10180400012CC70B012CC80B012C00323A2C2500EB
:1018140098012200EF010B302200C8002630C700D7
:101824005D30890B132CC70B132CC80B132C0032FF
:101834003A2C8C1C1E2C1F2C312C25001808F63E2B
:10184400980002302200C8000430C700BA30890B67
:10185400292CC70B292CC80B292C00003A2C0C1D51
:10186400342C352C232C250018080A3E9800232CF0
:1018740041302000C3008830C2000030C100003075
:10188400C000220054082000C70022005308200092
:10189400C600220052082000C50022005108200082
:1018A400C40091318A218A310318592C5A2C7A2C7C
:1018B400250098019A3114228A31FB01FB0A013078
:1018C4009C31D4248A311030FA009830FB009A31CC
:1018D400AD228A3133302200C800BB30C700DF306C
:1018E400890B722CC70B722CC80B722C0032E02CA3
:1018F40042302000C3005C30C2000030C100003020
:10190400C00022005C082000C70022005B08200001
:10191400C60022005A082000C500220059082000F1
:10192400C40091318A218A310318992C9A2CAD2C48
:10193400250098019A3114228A31FB01FB0A0130F7
:101944009C31D4248A310030FA009830FB009A315B
:10195400AD228A316C2C3F302000C3008030C2009D
:101964000030C1000030C000220058082000C70029
:10197400220057082000C600220056082000C50097
:10198400220055082000C40091318A218A310318AD
:10199400CC2CCD2C442A250098019A3114228A316A
:1019A400FB01FB0A01309C31D4248A311C30FA003B
:1019B4009830FB009A31AD228A316C2C8031022898
:1019C4002200AE0020006E08860001308700403FF0
:1019D4002100EA00413FEB006A0884006B0885009F
:1019E4001200253A031DF72CF82CD62F20006E0880
:1019F4008600013087000130810741310318810AD4
:101A04002200DF01E001E301E401FF30E100FF30E7
:101A1400E20020006E08860001308700403F21006C
:101A2400EA00413FEB006A0884006B08850012005D
:101A34002A3A031D1E2D1F2D432D20006E088600FB
:101A4400013087000130810741310318810A6F0892
:101A540086000130870001088400013085000230CF
:101A64008107003F2200DF00013FE000E01F3B2D23
:101A74003C2D8E2D6314DF09E009DF0A0319E00A07
:101A84008E2D20006E08860001308700403FF6004E
:101A9400413FF7009231C2228C3177082200E000E6
:101AA4007608DF005F2D20006E0886000130870075
:101AB4000130810741310318810A20006E08860035
:101AC40001308700403F2100EA00413FEB006A08F3
:101AD40084006B0885000008D03EEC00FF3003183A
:101AE4000030ED0000306D020A3003196C02031C53
:101AF4007C2D7E2D01307F2D0030EE00EF016E082D
:101B04002200A00021006F082200A1002008210467
:101B1400031D8D2D8E2D552D20006E08860001305D
:101B24008700403F2100EA00413FEB006A0884003F
:101B34006B08850012002E3A031DA12DA22D272E1D
:101B44002200E101E20120006E08860001308700D6
:101B54000130810741310318810A6E088600013083
:101B64008700403F2100EA00413FEB006A088400FF
:101B74006B08850012002A3A031DC12DC22DDC2DED
:101B840020006E0886000130870001308107413152
:101B94000318810A6F088600013087000108840059
:101BA4000130850002308107003F2200E100013F3F
:101BB400E200272E20006E08860001308700403F97
:101BC400F600413FF7009231C2228C31770822009F
:101BD400E2007608E100F82D20006E08860001304E
:101BE40087000130810741310318810A20006E0803
:101BF400860001308700403F2100EA00413FEB00AE
:101C04006A0884006B0885000008D03EEC00FF30B1
:101C140003180030ED0000306D020A3003196C0225
:101C2400031C152E172E0130182E0030EE00EF0184
:101C34006E082200A20021006F082200A3002208DF
:101C44002304031D262E272EEE2D20006E08860069
:101C540001308700403F2100EA00413FEB006A0861
:101C640084006B0885000008EC00ED016C08F600A8
:101C74006D08F7009B3174238C3176082100EE0047
:101C84006E082200AA002A080319492E4A2E912E12
:101C940020006E08860001308700403F2100EA00E2
:101CA400413FEB0001306A0784006B0803186B0A9C
:101CB40085000008EC00ED016C08F6006D08F700E3
:101CC4009B3174238C3176082100EE006E082200CB
:101CD400AB002B0803196F2E702E912E20006E0876
:101CE400860001308700403F2100EA00413FEB00BD
:101CF40002306A0784006B0803186B0A8500000829
:101D0400EC00ED016C08F6006D08F7009B317423BC
:101D14008C3176082100EE006E082200AC0066309B
:101D24002A06031D962E972EEA2E20006E088600A2
:101D340001308700403F2100EA00413FEB006A0880
:101D440084006B0885000008EC006C082200AD00DC
:101D540020006E0886000130870001308107413180
:101D64000318810A6F088600013087000108840087
:101D74000130850004308107003F2200A600013FA6
:101D8400A700023FA800033FA90029082100AB00D7
:101D9400220028082100AA00220027082100A90007
:101DA400220026082100A80022002D082100EA00B4
:101DB4006A08AC0022002E08813100218C312100F8
:101DC40029082000EF00210028082000EE00FF2F42
:101DD4004930F0009830F1000230F2000030F30096
:101DE4002A309F31A5278C3170087104031DFB2E06
:101DF400FC2E982F20006E08860001308700403F9B
:101E04002100EA00413FEB0001306A0784006B08BF
:101E140003186B0A85000008EC006C082200AD0072
:101E240020006E08860001308700403F2100EA0050
:101E3400413FEB006A0884006B0885000008BF3E40
:101E4400EC00FF3003180030ED0000306D021A3052
:101E540003196C02031C2F2F312F0130322F003055
:101E6400EE00EF016E082200A40021006F0822009A
:101E7400A500240825040319402F412F562F2000C4
:101E84006F08860001308700010884000130850056
:101E940004308107003F2200A600013FA700023F53
:101EA400A800033FA9006A2F20006F0886000130B4
:101EB4008700010884000130850004308107003F59
:101EC4002200A600013FA700023FA800033FA9008B
:101ED40020006E08860001308700023081074131FE
:101EE4000318810A220029082100AB0022002808D7
:101EF4002100AA00220027082100A90022002608A8
:101F04002100A80022002D082100EA006A08AC0084
:101F140022002E08813100218C3121002908200063
:101F2400EF00210028082000EE00FF2F20006E089B
:101F3400860001308700403F2100EA00413FEB006A
:101F44006A0884006B0885001200253A031DAB2F34
:101F5400AC2FC92F20006E088600013087000130A5
:101F6400810741310318810A2530F0000030F10067
:101F740022002E082100EA006A08F2009E319C2605
:101F84008C3101302000EE000030EF00FF2F2000E4
:101F94006E08860001308700013081074131031843
:101FA400810AEE01EF01FF2F20006E088600013048
:101FB4008700403F2100EA00413FEB006A088400AB
:101FC4006B0885000008EC00ED016C08F0006D085A
:101FD400F10022002E082100EE006E08F2009E316E
:101FE4009C268C3120006E08860001308700013069
:0C1FF400810741310318810AC32F080047
:10200A0080302100A30627082000DD0021002608D1
:10201A002000DC00210025082000DB002100240824
:10202A002000DA00210023082000E1002100220814
:10203A002000E000210021082000DF002100200804
:10204A002000DE0093317123903120005D082100C9
:10205A00A30020005C082100A20020005B082100E8
:10206A00A10020005A082100A000080021009911AF
:10207A001916991619178B130B120B1323008C01BF
:10208A008E0121008C018E0120008C018E0122001C
:10209A008C018E0121000C148C140C150E128E1258
:1020AA000C160E158E150E148E1400302000A30087
:1020BA000130A2008630A100A030A0009B31F1239C
:1020CA00903102302000A9000430A800BA30890BF0
:1020DA006C28A80B6C28A90B6C2800009C31912451
:1020EA0090319A31142290319A310B229031FB01AE
:1020FA00FB0A01309C31D42490312830FA00983000
:10210A00FB009A31AD22903115302000A9004B30E6
:10211A00A800BE30890B8F28A80B8F28A90B8F28FF
:10212A00000008000310720D730DF4007408FA0021
:10213A007A08031DA128A228AB280030F30000303A
:10214A00F2000030F1000030F0000A297008F400B3
:10215A007108F5007208F6007308F7001F30F736A9
:10216A00F60CF50CF40C890BB4287408F8007808FE
:10217A00F900F217FF30F005FF30F105FF30F205E4
:10218A000030F3059630FA02FA1FCC28CD28E5284C
:10219A007A08803A973E0318D328D428D528A2284B
:1021AA000130F336F20CF10CF00C890BD628013011
:1021BA00F4007408FA07031DE328E428D528FA284E
:1021CA0020307A02031CEA28EB28F528A2280130DD
:1021DA00F035F10DF20DF30D890BED280130FA02FD
:1021EA007A08031DF928FA28EC2879080319FE2829
:1021FA00FF280A29F009F109F209F309F00A03197B
:10220A00F10A0319F20A0319F30A080023003F0826
:10221A002000A50023003E082000A40023003D085A
:10222A002000A30023003C082000A2007308A50098
:10223A007208A4007108A3007008A2002208F40022
:10224A002308F5002408F6002508F7001730F736AA
:10225A00F60CF50CF40C890B2C29FF307405A00040
:10226A0000307505A10020082104031D3D293E29DF
:10227A005F292208F4002308F5002408F60025083F
:10228A00F7000130F435F50DF60DF70D890B4729E6
:10229A007708760475047404031D542955295A29AC
:1022AA000230F0000030F10089290330F0000030DC
:1022BA00F1008929200A2104031D64296529852939
:1022CA002208F4002308F5002408F6002508F70080
:1022DA000930F435F50DF60DF70D890B6E297708DF
:1022EA0076047504740403197B297D2901307E293B
:1022FA000030F800F9017808F0007908F10089291E
:10230A000430F0000030F1000800003020004005E1
:10231A00C80000304105C90080304205CA007F303C
:10232A004305CB004B084A0449044804031D9E296F
:10233A009F29A7290030C3000030C2000030C10025
:10234A000030C00000304405C80000304505C9000F
:10235A0080304605CA007F304705CB004B084A0447
:10236A0049044804031DBA29BB29C3290030C70000
:10237A000030C6000030C5000030C400C31FC629A3
:10238A00C729DF290030C8000030C9000030CA0060
:10239A008030CB004008C8024108C93B4208CA3B0A
:1023AA004308CB3B4B08C3004A08C2004908C10096
:1023BA004808C000C71FE229E329FB290030C800EA
:1023CA000030C9000030CA008030CB004408C8027F
:1023DA004508C93B4608CA3B4708CB3B4B08C700E0
:1023EA004A08C6004908C5004808C4008030C30628
:1023FA008030C70647084302031D0D2A46084202D9
:10240A00031D0D2A45084102031D0D2A44084002F6
:10241A000318102A112A132A0310142A0314080075
:10242A002000A000200803191B2A1C2A302AF91FA1
:10243A001F2A202A302A7609A2007709A3007809E0
:10244A00A4007909A500A20A0319A30A0319A40A78
:10245A000319A50A382A7908A5007808A40077087C
:10246A00A3007608A2007908780477047604031D8D
:10247A003F2A402A492A0030F9000030F80000308B
:10248A00F7000030F600C12A9630FA007A08A10057
:10249A00592A0130FA007A08A1070130A536A40C9E
:1024AA00A30CA20C890B532AFE302505031D5E2AB4
:1024BA005F2A4E2A732A0130FA007A08A1070130EE
:1024CA00A2070030A33D0030A43D0030A53D0130F5
:1024DA00A536A40CA30CA20C890B6D2AFF30250586
:1024EA00031D782A792A602A832A0130A102013041
:1024FA00A235A30DA40DA50D890B7D2AA41B862A3E
:10250A00872A8D2A0230210203188C2A8D2A7A2AD8
:10251A002118902A912A992AFF30A205FF30A30593
:10252A007F30A405FF30A5050310A10C2108FA008D
:10253A00FB01FC01FD011830FA35FB0DFC0DFD0D08
:10254A00890BA12A7A08A2047B08A3047C08A404A4
:10255A007D08A50420080319B32AB42AB92AF91F49
:10256A00B72AB82AB92AA5172508F9002408F800B5
:10257A002308F7002208F60008002000A701A80196
:10258A00A001A101CC2A0130F6070030F73DA601CF
:10259A00A60A76088400770885001200203A0319F3
:1025AA00D72AD82AED2A76088400770885000008F9
:1025BA00F73EF800FF3003180030F90000307902C6
:1025CA00053003197802031CEB2AEC2AED2AA6012E
:1025DA002608F800F9017808A2007908A300220861
:1025EA002304031DF92AFA2AC82A042B0130A00061
:1025FA000030A1000130F6070030F73D382B76088D
:10260A008400770885000008F800F9017908003A83
:10261A000319102B382B78082B3A0319FF2A063A8C
:10262A000319FB2A382B76088400770885000008EE
:10263A00F8002808F1002708F0000A30F2000030FC
:10264A00F3009A31CC2292317108FA0078087002AC
:10265A00F900031CFA037908303E2000A700003075
:10266A007A3DA800FF2A76088400770885000008CA
:10267A00D03EF800FF3003180030F900003079022C
:10268A000A3003197802031C4B2B4D2B01304E2BB9
:10269A000030FA00FB017A08A4007B08A500240890
:1026AA002504031D592B5A2B182B20082104031D1E
:1026BA005F2B602B6C2B2709F8002809F900F80A10
:1026CA000319F90A7808F6007908F700702B280828
:1026DA00F7002708F600080020005D088039E200AC
:1026EA006208EA005D35E2006208EC00DC1F7E2B1E
:1026FA007F2B802B6C146C080319842B852B952B4C
:10270A006C0A031D892B8A2B922B0030DD000030C6
:10271A00DC000030DB000030DA00DC17DD019D2B25
:10272A000030DD000030DC000030DB000030DA0071
:10273A0061088039E2006208EB006B086A06031937
:10274A00A72BA82BA92B6A176135E2006208EB00B8
:10275A00E01FB02BB12BB22B6B146B080319B62BED
:10276A00B72BC72B6B0A031DBB2BBC2BC42B00300A
:10277A00E1000030E0000030DF000030DE00E0174A
:10278A00E101CF2B0030E1000030E0000030DF0033
:10279A000030DE006C086B020318D42BD52B192CE1
:1027AA006A1FD82BD92BDD2B8030E2006208EA069B
:1027BA006C08E2006208ED006B08E2006208EC00B7
:1027CA006D08E2006208EB005A08E2006208ED00B8
:1027DA005E08E2006208DA006D08E2006208DE00C4
:1027EA005B08E2006208ED005F08E2006208DB00B5
:1027FA006D08E2006208DF005C08E2006208ED0092
:10280A006008E2006208DC006D08E2006208E0008D
:10281A005D08E2006208ED006108E2006208DD007E
:10282A006D08E2006208E100ED016B08E200E301D5
:10283A006308E5006C086202E400031CE50365080E
:10284A00803AE60080306602031D2D2C1A3064029D
:10285A00031C302C312C692C20005D085C045B04BD
:10286A005A04031D392C3B2C01303C2C0030E20069
:10287A006208ED000030DD000030DC000030DB00D3
:10288A000030DA006B08E2006208EC00702C6D1C64
:10289A004F2C502C562C6D360138E2006208ED00A0
:1028AA00582C0310ED0C5A1C5B2C5C2C5D2CED177C
:1028BA000130E200DD37DC0CDB0CDA0CE20B5F2CBA
:1028CA000130E2006208EC0720006B086C02031C6E
:1028DA006F2C702C4C2C6A1B732C742CAC2C6C082F
:1028EA00031D782C792C822C0030DD000030DC00AE
:1028FA000030DB000030DA00A82D5E08DA075F0836
:10290A00DB3D6008DC3D6108DD3D5D1C8D2C8E2CB5
:10291A00382D6D1C912C922C982C6D360138E200C2
:10292A006208ED009A2C0310ED0C5A1C9D2C9E2C6B
:10293A009F2CED170130E200DD37DC0CDB0CDA0CE2
:10294A00E20BA12C0130E2006208EC07382D5D0889
:10295A00803AE2006108803A6202031DBE2C6008D8
:10296A005C02031DBE2C5F085B02031DBE2C5E08C1
:10297A005A020318C12CC22CFA2CFF30E200FF3095
:10298A00E300FF30E400FF30E5005A085E02E6008B
:10299A005B085F3BE7005C08603BE8005D08613B61
:1029AA00E9006608E2076708E33D6808E43D69084C
:1029BA00E53D6508DD006408DC006308DB006208A9
:1029CA00DA008030E2006208EA06ED09ED0A6D08D5
:1029DA00031DF02CF12C022D0130DA070030DB3D0B
:1029EA000030DC3D0030DD3D022D5E08DA025F0872
:1029FA00DB3B6008DC3B6108DD3B5D085C045B0493
:102A0A005A04031D092D0A2D342D6D08031D0E2DA0
:102A1A000F2D342D0030DD000030DC000030DB00EB
:102A2A000030DA00A82D0130DA35DB0DDC0DDD0DC2
:102A3A00890B192DED1F222D232D242D5A146D1CBF
:102A4A00272D282D2B2D0314ED0D2D2D0310ED0D03
:102A5A006C080319312D322D342D0130EC02DC1FA4
:102A6A00372D382D182DEB01ED1F3C2D3D2D4B2D0B
:102A7A006D087F390319422D432D462DEB01EB0AD0
:102A8A004B2D5A1C492D4A2D4B2D432D6B080319EA
:102A9A004F2D502D7D2D0130DA070030DB3D0030FF
:102AAA00DC3D0030DD3D5D1C5B2D5C2D7D2D5A0823
:102ABA00E2005B08E3005C08E4005D08E500013021
:102ACA00E600E537E40CE30CE20CE60B662D65083C
:102ADA00DD006408DC006308DB006208DA006C0AC7
:102AEA000319782D792D7D2D0130E2006208EC075B
:102AFA006C0A0319812D822D872D6C08031D862DE2
:102B0A00872D952D0030DD000030DC000030DB0021
:102B1A000030DA006C08031D932D942D952DEA01DF
:102B2A006C1C982D992D9B2DDC179F2D7F30E20070
:102B3A006208DC056C36E2006208DD00EA1FA62D99
:102B4A00A72DA82DDD170800200029088039AE001E
:102B5A002E08B3002935AE002E08B900A81FB62DDD
:102B6A00B72DB82D391439080319BC2DBD2DCC2D1C
:102B7A00390A031DC12DC22DCA2D0030A90000300B
:102B8A00A8000030A7000030A600A817D42D0030F6
:102B9A00A9000030A8000030A7000030A6002D08C8
:102BAA008039AE002E08B3062D35AE002E08B800C7
:102BBA00AC1FE02DE12DE22D381438080319E62D5B
:102BCA00E72DF62D380A031DEB2DEC2DF42D0030E0
:102BDA00AD000030AC000030AB000030AA00AC17EA
:102BEA00FE2D0030AD000030AC000030AB000030EC
:102BFA00AA0038080319022E032E082E3908031DCD
:102C0A00072E082E112E0030A9000030A80000302F
:102C1A00A7000030A600FF2F2608AE002E08F000FD
:102C2A002C089B312D23953171082000BF007008B4
:102C3A00BE003E08AE00AF01B001B1013108B700D5
:102C4A003008B6002F08B5002E08B4003F08AE00C1
:102C5A00AF01B001B1013108BD003008BC002F0836
:102C6A00BB002E08BA002708AE002E08F0002B0879
:102C7A009B312D23953171082000BF007008BE00DA
:102C8A003E08AE00AF01B001B1012E08B4072F080B
:102C9A00B53D3008B63D3108B73D3F08AE00AF013B
:102CAA00B001B1012E08BA072F08BB3D3008BC3D60
:102CBA003108BD3D2808AE002E08F0002A089B31D5
:102CCA002D23953171082000BF007008BE003E0810
:102CDA00AE00AF01B001B1012E08B4072F08B53D0F
:102CEA003008B63D3108B73D3F08AE00AF01B0012C
:102CFA00B1012E08BA072F08BB3D3008BC3D310888
:102D0A00BD3D0830B435B50DB60DB70D890B872E0C
:102D1A002708AE002E08F0002A089B312D23953192
:102D2A0071082000BF007008BE003E08B4073F08C3
:102D3A00B53D0030B63DB73D2608AE002E08F0007E
:102D4A002B089B312D23953171082000BF00700894
:102D5A00BE003E08B4073F08B53D0030B63DB73D5A
:102D6A000830B435B50DB60DB70D890BB62E260849
:102D7A00AE002E08F0002A089B312D2395317108E8
:102D8A002000BF007008BE003E08B4073F08B53DEA
:102D9A000030B63DB73D2708AE002E08F0002C08DB
:102DAA009B312D23953171082000BF007008BE00A9
:102DBA003E08BA073F08BB3D0030BC3DBD3D280870
:102DCA00AE002E08F0002B089B312D239531710897
:102DDA002000BF007008BE003E08BA073F08BB3D8E
:102DEA000030BC3DBD3D2808AE002E08F0002C087E
:102DFA009B312D23953171082000BF007008BE0059
:102E0A003E08AE003F08AF00B001B1010830AE3550
:102E1A00AF0DB00DB10D890B0C2F2E08BA072F0874
:102E2A00BB3D3008BC3D3108BD3D3408AE00350815
:102E3A00AF003608B0003708B1001830B136B00C10
:102E4A00AF0CAE0C890B232F2E08BA072F08BB3DF7
:102E5A003008BC3D3108BD3D0830B435B50DB60D5E
:102E6A00B70D890B322F39083807AE00AF01AF0D05
:102E7A002E08823EBE00FF302F3DBF005B2F01307F
:102E8A00BA35BB0DBC0DBD0D890B452FB71F4E2F93
:102E9A004F2F502F3A140130B435B50DB60DB70D7A
:102EAA00890B512FFF30BE07FF30BF3DBC1F5E2F7D
:102EBA005F2F442FB801B71F632F642F802FFF3075
:102ECA003405AE00FF303505AF00FF303605B000DF
:102EDA007F303705B100310830042F042E0403195E
:102EEA00772F782F7B2FB801B80A802F3A1C7E2FB4
:102EFA007F2F802F782F38080319842F852FAD2F25
:102F0A000130BA070030BB3D0030BC3D0030BD3D4A
:102F1A003D1C902F912FAD2F3A08AE003B08AF0011
:102F2A003C08B0003D08B1000130B200B137B00C26
:102F3A00AF0CAE0CB20B9B2F3108BD003008BC00A1
:102F4A002F08BB002E08BA000130BE070030BF3D73
:102F5A003F08803AAE0080302E02031DB62FFF30A4
:102F6A003E02031CB92FBA2FC42F7F302000BD00A8
:102F7A008030BC000030BB000030BA00F32F2000C4
:102F8A003F08803AAE0080302E02031DCE2F01305A
:102F9A003E020318D12FD22FDD2F00302000BD00B2
:102FAA000030BC000030BB000030BA00B301F32F80
:102FBA0020003E08AE002E08B900FF30BA05FF30E7
:102FCA00BB057F30BC050030BD05391CED2FEE2F47
:102FDA00EF2FBC173936AE002E08BD003308AE00FD
:102FEA002E08BD043D08A9003C08A8003B08A7001C
:102FFA003A08A60008004F347634653472347434C3
:10300A0065346D34703465347234613474347534B3
:10301A007234653400344F3476346534723476341D
:10302A006F346C34743461346734653400344F342B
:10303A007634653472346334753472347234653478
:10304A006E34743400345034613475346C34203442
:10305A0049346F347234673461340034253432347D
:10306A002E3431346634003449344E344634003414
:10307A004E3441344E34003469346E34663400348C
:10308A006E3461346E3400346C3466340034203467
:10309A00413400342034433400342034563400346C
:1033E4009A31282299312400161408009A3128228F
:1033F4009931240016150800640080010131890BFD
:10340400FF2900349A3128229A317008240091004F
:10341400080000309C3121249A310C309C31212445
:103424009A31080000309C3121249A3101309C31BA
:1034340021249A310800730872047104700403197A
:10344400242A252A272A8030F30608002400141988
:103454002C2A2D2A282A16081F39031D322A332A1A
:10346400282A080021008C162000911022001E1426
:103474000C3025009A009E019C01653020009B00C1
:1034840025009801043020009C0021008C120800C3
:103494007008D03EF200FF30713DF300003073023B
:1034A4000A3003197202031C582A5A2A01305B2A73
:1034B4000030F400F5017408F0007508F10008000C
:1034C4007008BF3EF200FF30713DF300003073021C
:1034D4001A3003197202031C702A722A0130732AEB
:1034E4000030F400F5017408F0007508F1000800DC
:1034F400F4009931F2219A317030F0000030F1007B
:103504009A3104229A317408F200F3017208F0002F
:103514007308F1009A3104229A319931F8219A31D1
:103524000800F4007408F2007208F3009D2A0130C8
:10353400F2007208F407740886000230870001085C
:10354400031DA52AA62A992A73087402F000F10122
:10355400F01BF10308002000A001A101C02A7A0891
:10356400200784007B08213D850000089C315224FB
:103574009A3101302000A0070030A13D7A082007CD
:1035840084007B08213D85001200031DCA2ACB2A32
:10359400B12A0800F401F501701CD12AD22AD62AD6
:1035A4007208F4077308F53D0130F235F30D890B09
:1035B400D72A0130F136F00C890BDC2A700871042B
:1035C400031DE52AE62ACE2A7508F1007408F000E6
:1035D4000800F401F40A2030700671040319F32A78
:1035E400F42A042B7008F73EF200FF30713DF3001B
:1035F40000307302053003197202031C022B032BE3
:10360400042BF4017408F200F3017208F00073084B
:10361400F1000800F7007108F5007008F40077085D
:10362400F2007208F6007608860002308700F60A77
:103634007508F3007408F200F40A0319F50A720815
:103644008400730885000008C03F8908031D2B2BE4
:103654002C2B152B0800F800F401F5017008F2007A
:10366400F3017208F6007308F700781C3A2B3B2B21
:103674003F2B7608F4077708F53D0130F635F70D52
:10368400890B402B0310F80C7808031D4A2B4B2B95
:10369400372B7508F1007408F00008002200C00000
:1036A4003930BD003D08C1004008BD003D08C200DE
:1036B400C301C401C501C6013808B0003708AF0012
:1036C4004130BD003D08B10042309B31C2239B31E3
:1036D400220043084007BD003D08860001308700F2
:1036E400810108007608BF3EF800FF30773DF900FD
:1036F400003079021A3003197802031C822B842BC0
:103704000130852B0030FA00FB017A08FC007B08AD
:10371400FD007C087D040319902B912B982B2030FD
:103724007604F60000307704F700982B0800200098
:10373400A300A101A201B12B2008F900FA01790824
:10374400F0007A08F1007808FB007B08F2009E3153
:103754009C269B3101302000A1070030A23D2108A6
:103764002307F90079088600023087000108FA006F
:103774007A08A0002008031DC02BC12B9E2B080033
:103784002200B4003008B6002F08B500DD01DE01C8
:10379400E32B3530B20032082000EE00220031085D
:1037A400B30033082000EF00220034088C31E224F7
:1037B4009B3120006E082200DD0720006F082200E4
:1037C400DE3D35088400360885001200031DEB2B0E
:1037D400EC2BCB2B5E08B0005D08AF00080028304E
:1037E40024009500960120002008A4002108A500CB
:1037F4002208A6002308A7000230A435A50DA60DB3
:10380400A70D890BFF2B2708F3002608F2002508D3
:10381400F1002408F0000030F7007A30F60012308E
:10382400F5000030F4009F314B279B317008FF3EB8
:1038340024009200940121000E148E140800FA0052
:103844007A08F5000330F535FF3E031D252C753548
:10385400F6007608FA0000309A317A229C317A0810
:103864009A317A229C3104307A04F8000030F9004D
:1038740078089A317A229C310B30F5006230890B3A
:10388400412CF50B412C00327A08F500F60175083D
:10389400F8007608F90078089A317A229C310800F9
:1038A400F70077080F39F5007508F9007908F50075
:1038B4000330F535FF3E031D5B2C7535F6007608A5
:1038C400F9007708F039F5007508F80001309A31ED
:1038D4007A229C3178089A317A229C31780805380A
:1038E4009A317A229C311A30890B762C003278086E
:1038F40001389A317A229C3179089A317A229C31A2
:10390400790805389A317A229C311A30890B882C2F
:103914000032790801389A317A229C31080000304B
:103924009A317A229C313430FB00F230890B982C86
:10393400FB0B982C03309C3121249C310D30FB006F
:10394400FC30890BA32CFB0BA32C03309C312124CA
:103954009C311D30FB009130890BAE2CFB0BAE2C3F
:10396400000003309C3121249C3102309C312124FD
:103974009C3102309C3121249C3108309C3121241B
:103984009C3100309C3121249C310C309C31212409
:103994009C3100309C3121249C3106309C312124FF
:1039A4009C3108002000A0002003031DDA2CDB2C2E
:1039B400F92C7B087F3EFC007C08A3002308FC0054
:1039C4000430FC36890BE32C7C08FD007D08A10043
:1039D40023080F39FC007C08A20021089C31212413
:1039E4009C31200022089C3121249C311C2D023062
:1039F4002006031DFE2CFF2C1C2D7B08BF3EFC0063
:103A04007C08A3002308FC000430FC36890B072D36
:103A14007C08FD007D08A10023080F39FC007C0808
:103A2400A20021089C3121249C31200022089C31D1
:103A340021249C3108001D3021009D004230890B57
:103A4400212D003221009D149D18292D2A2D262D6B
:103A54001C08F000F10170082200E7007108E8007A
:103A64000630A83E8600013087000430A83E84005A
:103A740001308500003F23002A07F000013F2B3D61
:103A8400F100403F7007F200413F713DF300220016
:103A940067087207F4006808733DF500F536F40C06
:103AA400F536F40C74082300A8007508A9002D0845
:103AB400AF002C08AE002B08AD002A08AC00290882
:103AC400AB002808AA00280808000D3021009D003A
:103AD4004230890B6B2D003221009D149D18732DEB
:103AE400742D702D1C08F000F10170082200E5000F
:103AF4007108E6000630A03E8600013087000430DD
:103B0400A03E840001308500003F23002207F0001E
:103B1400013F233DF100403F7007F200413F713DFA
:103B2400F300220065087207F4006608733DF5008F
:103B3400F536F40CF536F40C74082300A00075086F
:103B4400A1002508A7002408A6002308A500220830
:103B5400A4002108A3002008A200200808001930AE
:103B640021009D004230890BB52D003221009D14A7
:103B74009D18BD2DBE2DBA2D1C08F000F101700852
:103B84002200E9007108EA000630B03E86000130E8
:103B940087000430B03E840001308500003F2300DC
:103BA4003207F000013F333DF100403F7007F2005F
:103BB400413F713DF300220069087207F4006A086E
:103BC400733DF500F536F40CF536F40C7408230057
:103BD400B0007508B1003508B7003408B6003308E2
:103BE400B5003208B4003108B3003008B200300820
:103BF400080000307005F80000307105F9008030CD
:103C04007205FA007F307305FB007B087A0479049F
:103C14007804031D0E2E0F2E172E0030F3000030F3
:103C2400F2000030F1000030F00000307405F800BC
:103C340000307505F90080307605FA007F3077058D
:103C4400FB007B087A0479047804031D2A2E2B2EAA
:103C5400332E0030F7000030F6000030F50000305D
:103C6400F40077087306031D412E76087206031DBF
:103C7400412E75087106031D412E74087006031940
:103C8400442E452E472E0310482E03140800F60137
:103C9400F31F4D2E4E2E552EF209F309F20A031985
:103CA400F30AF601F60AF11F582E592E5E2EF0097A
:103CB400F109F00A0319F10A700871040319632E5B
:103CC400642E8D2EF501F50A702E0130F035F10DBC
:103CD400890B682E0130F4007408F507F11F732E68
:103CE400742E672E71087302031D7A2E70087202F7
:103CF400031C7D2E7E2E822E7008F2027108F33B87
:103D04000130F136F00C890B832E0130F502031DCE
:103D14008C2E8D2E742E76080319912E922E972EAA
:103D2400F209F309F20A0319F30A7308F10072089D
:103D3400F000080072080319A02EA12EA62E720806
:103D4400031DA52EA62EAB2E7008803106209E31B1
:103D5400F12E7208033E860001308700160001042C
:103D64000319B52EB62ED52E7208033E86000130F7
:103D74008700403FF300413FF400720A860001309F
:103D84008700403FF500413FF6007608803AF7008F
:103D94007408803A7702031DD12E73087502031844
:103DA400D42ED52EF12E7008F3007208860001304F
:103DB4008700720A84000130850000080107F400BE
:103DC400740886000130870073088100720A860037
:103DD400013087000130810741310318810A08004E
:103DE4002000AB002200631CF82EF92E022F2000C5
:103DF4002B08FC007C08F80024089B3199239E3191
:103E04002000A61B062F072F0C2F2608AA00250822
:103E1400A9000E2FA901AA01A701A801222F203071
:103E2400F0000030F10020002B08FC007C08F200B8
:103E34009E319C269E3101302000A7070030A83D0A
:103E44002808803AFC002A08803A7C02031D2C2FA3
:103E540029082702031C2F2F302F112F220063184B
:103E6400342F352F3E2F20002B08FC007C08F8004F
:103E740024089B3199239E31200024089A319322EF
:103E84009E31200029087007A4002A08713DA5006E
:103E940008000030FC000030FB000030FA00003065
:103EA400F900730872047104700403195A2F5B2F0C
:103EB4009C2FFD01FD0A692F0130F035F10DF20D43
:103EC400F30D890B5F2F0130F8007808FD07F31F0D
:103ED4006C2F6D2F5E2F0130F935FA0DFB0DFC0DA3
:103EE400890B6E2F73087702031D822F72087602E6
:103EF400031D822F71087502031D822F700874023E
:103F0400031C852F862F8F2F7008F4027108F53B50
:103F14007208F63B7308F73B79140130F336F20C60
:103F2400F10CF00C890B902F0130FD02031D9B2F27
:103F34009C2F6D2F7C08F3007B08F2007A08F100B7
:103F44007908F0000800F5007508F4007408F8001A
:103F54007108F7007008F6000130F2020030F33BFC
:103F6400720A031DB92F730A031DB92FBA2FC92F63
:103F7400F001F101FF2F0130F4007408F80701305B
:103F8400F6070030F73D0130F2020030F33B7808C9
:103F940086000130870001080319D12FD22FF12F99
:103FA400760884007708850012000319DA2FDB2FC6
:103FB400F12F720873040319E02FE12FF12F760813
:103FC4008400770885000008F40078088600013032
:103FD4008700010874060319F02FF12FBD2F78080C
:103FE4008600013087007608840077088500000881
:0C3FF4000102F000F101031CF1030800C1
:020000040001F9
:04000E00E4C9FFFC46
:00000001FF
