:020000040000FA
:10000000803102288731E02F24001419082809289C
:10001000042816081F39031D0E280F28042808007D
:1000200023002B082000ED0023002A082000EC000C
:10003000230029082000EB00230028082000EA0004
:100040005D08ED005C08EC005B08EB005A08EA0074
:100050006A08DE006B08DF006C08E0006D08E10054
:100060001730E136E00CDF0CDE0C890B3128FF3055
:100070005E05E20000305F05E3006208813EE800B3
:10008000FF30633DE9006908803ADE0080305E029F
:10009000031D4C2817306802031C4F285028512894
:1000A000FA282000E91B55285628B328FF30DE0027
:1000B000FF30DF007F30E0000030E100680A642894
:1000C000E137E00CDF0CDE0C890B60286108E700EB
:1000D0006008E6005F08E5005E08E4006A08640561
:1000E000DE006B086505DF006C086605E0006D0842
:1000F0006705E100610860045F045E04031D812858
:100100008228832850286A08DE006B08DF006C080C
:10011000E0006D08E1001F30E136E00CDF0CDE0C82
:10012000890B8C28610860045F045E040319992818
:100130009A28A2286408EA076508EB3D6608EC3DAA
:100140006708ED3D6409DE006509DF006609E0002F
:100150006709E1005E08EA055F08EB056008EC0549
:100160006108ED05F2286A08DE006B08DF006C0804
:10017000E0006D08E1001F30E136E00CDF0CDE0C22
:10018000890BBC28610860045F045E04031DC92854
:10019000CA28D3280030ED000030EC000030EB001E
:1001A0000030EA00F2286A08DE006B08DF006C0805
:1001B000E0006D08E1000130DE35DF0DE00DE10DFE
:1001C000890BDC28610860045F045E040319E928D8
:1001D000EA28F228BF30ED008030EC000030EB0060
:1001E0000030EA006D08DD006C08DC006B08DB0005
:1001F0006A08DA0008002100CD00CB01CC012B08F1
:10020000E1002A08E0002908DF002808DE00610874
:100210002000C300210060082000C20021005F0808
:100220002000C10021005E082000C0000030C7008F
:100230000030C6000030C5000030C40092314C22AE
:1002400080310318242925293E2901302100CB00C3
:100250000030CC006108F3006008F2005F08F10094
:100260005E08F0009A31DC22803173082100E10041
:100270007208E0007108DF007008DE002100E40170
:10028000E501220064082100D20022006308210059
:10029000D1004B084C04031D4E294F29542922003C
:1002A000671D53295429722921004B084C04031D52
:1002B0005A295B2960292B30B5000030B60064292B
:1002C0002D30B5000030B6003508AD002D082400F3
:1002D000A00001302100E4070030E53DFF30D107E8
:1002E000FF30D23D21006108F3006008F2005F0892
:1002F000F1005E08F0009131CD218031700371046E
:10030000031D83298429D62921002C08BF3EAD0076
:10031000FF3003180030AE0000302E021A300319EF
:100320002D02031C94299629013097290030AF0033
:10033000B0012F08B7003008B80037083804031997
:10034000A229A329AD291130F0009830F1006408EA
:10035000203E9B31CD238031B6291930F0009830F2
:10036000F1006408203E9B31CD238031FD30210017
:10037000D107FF30D23D2030AD002D082000A40071
:10038000210052082000A600210051082000A500ED
:1003900021004D089F314D27803120002508210084
:1003A000A900200024082100A800DF2F21006108F7
:1003B000F3006008F2005F08F1005E08F000913180
:1003C000CD21803170087104031DE729E8293A2AFC
:1003D00021002C08BF3EAD00FF3003180030AE00F6
:1003E00000302E021A3003192D02031CF829FA29B5
:1003F0000130FB290030AF00B0012F08B9003008F0
:10040000BA0039083A040319062A072A112A1530B6
:10041000F0009830F1006408203E9B31CD238031FC
:100420001A2A1D30F0009830F1006408203E9B31FC
:10043000CD238031FD302100D107FF30D23D203067
:10044000AD002D082000A400210052082000A600C5
:10045000210051082000A50021004D089F314D27A3
:100460008031200025082100A90020002408210057
:10047000A800DF2F3F302100E9008030E800003085
:10048000E7000030E600E201E3016108F3006008E4
:10049000F2005F08F1005E08F0000030F700003065
:1004A000F6000030F5000030F4009E31A9268031BE
:1004B00003185B2A5C2A202B8D2A41302000A900DA
:1004C0002030A8000030A7000030A60021006908F5
:1004D0002000AD00210068082000AC002100670862
:1004E0002000AB00210066082000AA008A318B2280
:1004F0008031200029082100E9002000280821007F
:10050000E800200027082100E7002000260821003D
:10051000E6000130E2070030E33D210061082000E1
:10052000C300210060082000C20021005F082000F5
:10053000C10021005E082000C0004130A900203029
:10054000A8000030A7000030A600210069082000A4
:10055000AD00210068082000AC00210067082000E1
:10056000AB00210066082000AA008A318B2280316E
:1005700020002908C7002808C6002708C50026084B
:10058000C40092314C2280310318C72AC82A5D2A40
:10059000F92A41302000C3002030C2000030C100E1
:1005A0000030C000210069082000C7002100680851
:1005B0002000C600210067082000C5002100660851
:1005C0002000C400943133248031200043082100EE
:1005D000E900200042082100E80020004108210035
:1005E000E700200040082100E600FF30E207FF306E
:1005F000E33D210061082000C300210060082000C5
:10060000C20021005F082000C10021005E08200018
:10061000C000210069082000C700210068082000F0
:10062000C600210067082000C500210066082000E0
:10063000C40092314C228031031C1F2B202BC92A6D
:1006400021002C08AD00AE012D08F6002E08F700A1
:100650009C313524803176082100AF002F08D3006B
:100660005308AD002D08D00067305306031D392B09
:100670003A2B632B220065086604031D402B412B97
:10068000452B0130E5000030E6006608803A210085
:10069000AD0080302D02031D502B01302200650279
:1006A0000318532B542B5A2B06302100CE00003058
:1006B000CF00692B220066082100CF0022006508C8
:1006C0002100CE00692B2200E61B672B682B542BE0
:1006D0005A2B67305306031D6E2B6F2B9C2B630820
:1006E000803AAD007F302D02031D782BFC30620272
:1006F000031C7B2B7C2B972B21004E08FF3EAD006B
:10070000FF304F3DAE002E08803AAF006308803ABC
:100710002F02031D8D2B62082D02031C902B912BA1
:10072000972B66302100AD002D08D0009C2B653042
:100730002100AD002D08D0004F08C6004E08C500AE
:1007400067305306031DA52BA62BB02B6630500631
:10075000031DAB2BAC2BB42BE31FAF2BB02BB42B57
:100760000130C5070030C63D66305006031DB92B69
:10077000BA2BD22BE31FBD2BBE2BC82B3F30E90079
:100780008030E8000030E7000030E600E201E301DD
:10079000673053060319CD2BCE2BD22B6208C50729
:1007A0006308C63DDC01DD016108D7006008D600A2
:1007B0005F08D5005E08D4006908B4006808B3007B
:1007C0006708B2006608B100AA2C21006908200061
:1007D000C300210068082000C20021006708200033
:1007E000C100210066082000C00021005708200039
:1007F000C700210056082000C6002100550820002F
:10080000C500210054082000C400943133248031F5
:1008100020004308DD004208DC004108DB004008FE
:10082000DA0080311020803120005D082100DB00DB
:1008300020005C082100DA0020005B082100D900BC
:1008400020005A082100D8005B08F3005A08F20083
:100850005908F1005808F000913159218031710890
:100860002100CA007008C9005B082000AD0021000B
:100870005A082000AC00210059082000AB002100DC
:1008800058082000AA00210069082000A9002100C2
:1008900068082000A800210067082000A7002100A8
:1008A00066082000A6008A318B22803120002908AA
:1008B0002100A300200028082100A2002000270812
:1008C0002100A100200026082100A0005708A70051
:1008D0005608A6005508A5005408A4009D3113250C
:1008E000803121002308D7002208D6002108D50036
:1008F0002008D40041302000C3002030C200003066
:10090000C1000030C000210069082000C70021009C
:1009100068082000C600210067082000C5002100EB
:1009200066082000C400943133248031200043083D
:100930002100E900200042082100E80020004108D1
:100940002100E700200040082100E6000130DC071C
:100950000030DD3D5D08803AAD004608803A2D024A
:10096000031DB42C45085C02031CB72CB82CE52BE6
:1009700040302000A900A030A8000030A7000030BF
:10098000A600210069082000AD00210068082000B1
:10099000AC00210067082000AB00210066082000A1
:1009A000AA008A318B228031200029082100DB0037
:1009B000200028082100DA00200027082100D900A3
:1009C000200026082100D80057082000C30021007D
:1009D00056082000C200210055082000C100210057
:1009E00054082000C00021005B082000C70021003F
:1009F0005A082000C600210059082000C500210027
:100A000058082000C40092314C2280310318092D6F
:100A10000A2D142D00302100DB000030DA000030F8
:100A2000D9000030D800392D21005708F3005608AE
:100A3000F2005508F1005408F0005B08F7005A086E
:100A4000F6005908F5005808F4009E31A9268031B7
:100A5000031C2B2D2C2D392D21004918302D312D23
:100A6000392D0030DB000030DA000030D9000030D2
:100A7000D80021005B082000DD0021005A0820007A
:100A8000DC00210059082000DB002100580820006C
:100A9000DA00210061082000E10021006008200048
:100AA000E00021005F082000DF0021005E08200038
:100AB000DE0088315320803120005D082100D700FE
:100AC00020005C082100D60020005B082100D50032
:100AD00020005A082100D4003408E9003308E80057
:100AE0003208E7003108E600653050060319792D19
:100AF0007A2D7F2D6308C8006208C700812DC701C9
:100B0000C801C301C401C101C201DC01DD01BA2E6B
:100B1000210069082000C300210068082000C200ED
:100B2000210067082000C100210066082000C000E5
:100B3000210057082000C700210056082000C600E9
:100B4000210055082000C500210054082000C400E1
:100B500094313324803120004308DD004208DC005A
:100B60004108DB004008DA0080311020803120008D
:100B70005D082100DB0020005C082100DA00200075
:100B80005B082100D90020005A082100D8005B082A
:100B9000F3005A08F2005908F1005808F0009131AA
:100BA0005921803171082100CA007008C900220053
:100BB000671ADB2DDC2DF22D210049084A04031DA4
:100BC000E22DE32DF22D67305306031DE82DE92DAC
:100BD000F22DC81FEC2DED2DF22D0130C107003094
:100BE000C23D402E210043084404031DF82DF92D79
:100BF000282EC81FFC2DFD2D282E2E30AD00640898
:100C0000203E8600023087002D0881000130E40775
:100C10000030E53DFF30D107FF30D23D0130C30049
:100C20000030C400282E3030AD006408203E86001D
:100C3000023087002D0881000130E4070030E53DD7
:100C4000FF30D107FF30D23DFF30C107FF30C23D3A
:100C500041084204031D2D2E2E2E132E4908303E2E
:100C6000AD006408203E8600023087002D08810018
:100C70000130E4070030E53DFF30D107FF30D23DC1
:100C80005B082000AD0021005A082000AC002100C4
:100C900059082000AB00210058082000AA002100BC
:100CA00069082000A900210068082000A800210090
:100CB00067082000A700210066082000A6008A31EE
:100CC0008B228031200029082100A3002000280861
:100CD0002100A200200027082100A10020002608F2
:100CE0002100A0005708A7005608A6005508A50037
:100CF0005408A4009D311325803121002308D7001A
:100D00002208D6002108D5002008D4004130200058
:100D1000C3002030C2000030C1000030C0002100FC
:100D200069082000C700210068082000C6002100D3
:100D300067082000C500210066082000C400943127
:100D400033248031200043082100E90020004208BC
:100D50002100E800200041082100E70020004008B1
:100D60002100E600FF30C707FF30C83D0130DC0737
:100D70000030DD3D5D08803AAD004608803A2D0226
:100D8000031DC42E45085C020318C72EC82ED62E9C
:100D900021006508803AAD0080302D02031DD22E5F
:100DA0004B306402031CD52ED62E882D210043081B
:100DB0004404031DDC2EDD2EF02E2200671EE12EE2
:100DC000E22EF02E2E302100AD006408203E860079
:100DD000023087002D0881000130E4070030E53D36
:100DE00021006408203E86000230870081016530C2
:100DF0005006031DFC2EFD2EC42F4F30DC000030AA
:100E0000DD005C08203E8600023087008101CB01B6
:100E1000CC01E31F0C2F0D2F162F0130CB0000301B
:100E2000CC00E209E309E20A0319E30A0230CE002A
:100E30000030CF004E2FFF302100DC07FF30DD3DBA
:100E40000A30F0000030F1006308F3006208F2009D
:100E50008831002080317008303E2100AD005C08F0
:100E6000203E8600023087002D0881000A30F00005
:100E70000030F1006308F3006208F2009031FA20BC
:100E8000803171082100E3007008E200FF30CE07D6
:100E9000FF30CF3DFF30D107FF30D23D6208630401
:100EA000031D532F542F1B2F4F08803AAD00803065
:100EB0002D02031D5D2F01304E020318602F612F9C
:100EC0001B2FFF302100DC07FF30DD3D4B084C04B9
:100ED000031D6B2F6C2F712F2B30BB000030BC001B
:100EE000752F2D30BB000030BC003B08AD005C0806
:100EF000203E8600023087002D088100FF30D10798
:100F0000FF30D23DFF30DC07FF30DD3D2C08BF3E17
:100F1000AD00FF3003180030AE0000302E021A3052
:100F200003192D02031C952F972F0130982F0030A5
:100F3000AF00B0012F08BF003008C0003F084004D8
:100F4000031DA32FA42FA92F6530BD000030BE00C4
:100F5000AD2F4530BD000030BE003D08AD005C083F
:100F6000203E8600023087002D088100FF30D10727
:100F7000FF30D23D5C08203EF0000230F1006408F2
:100F8000203E9B31CD23803120302100AD002D0843
:100F90002000A400210052082000A60021005108D2
:100FA0002000A50021004D089F314D2780312000F1
:100FB00025082100A900200024082100A80008001D
:100FC00022009A31B0228731EF0051308400013085
:100FD00085001E309A31BD228731A0308400013057
:100FE000850033309A31BD228731203084000230B1
:100FF000850050309A31BD22873120009531E72D90
:10100000F601F31F042805280C28F209F309F20A57
:101010000319F30AF601F60AF11F0F281028152804
:10102000F009F109F00A0319F10A700871040319B3
:101030001A281B284428F501F50A27280130F03525
:10104000F10D890B1F280130F4007408F507F11F1A
:101050002A282B281E2871087302031D31287008C6
:101060007202031C3428352839287008F2027108EE
:10107000F33B0130F136F00C890B3A280130F502D0
:10108000031D432844282B2876080319482849289B
:101090004E28F209F309F20A0319F30A7308F10062
:1010A0007208F000080020005D088039E200620844
:1010B000EA005D35E2006208EC00DC1F6028612870
:1010C00062286C146C0803196628672877286C0A54
:1010D000031D6B286C2874280030DD000030DC0014
:1010E0000030DB000030DA00DC17DD017F28003043
:1010F000DD000030DC000030DB000030DA00610889
:101100008039E2006208EB006B086A06031989283F
:101110008A288B286A176135E2006208EB00E01F1D
:101120009228932894286B146B08031998289928FF
:10113000A9286B0A031D9D289E28A6280030E100DF
:101140000030E0000030DF000030DE00E017E10199
:10115000B1280030E1000030E0000030DF00003056
:10116000DE006C086B020318B628B728FB286A1F3C
:10117000BA28BB28BF288030E2006208EA066C0863
:10118000E2006208ED006B08E2006208EC006D0806
:10119000E2006208EB005A08E2006208ED005E0817
:1011A000E2006208DA006D08E2006208DE005B0817
:1011B000E2006208ED005F08E2006208DB006D08F3
:1011C000E2006208DF005C08E2006208ED006008EF
:1011D000E2006208DC006D08E2006208E0005D08E1
:1011E000E2006208ED006108E2006208DD006D08BF
:1011F000E2006208E100ED016B08E200E301630830
:10120000E5006C086202E400031CE5036508803A0F
:10121000E60080306602031D0F291A306402031CA9
:10122000122913294B2920005D085C045B045A0431
:10123000031D1B291D2901301E290030E200620810
:10124000ED000030DD000030DC000030DB0000305D
:10125000DA006B08E2006208EC0052296D1C3129AB
:10126000322938296D360138E2006208ED003A294A
:101270000310ED0C5A1C3D293E293F29ED17013082
:10128000E200DD37DC0CDB0CDA0CE20B412901302B
:10129000E2006208EC0720006B086C02031C512975
:1012A00052292E296A1B552956298E296C08031D9F
:1012B0005A295B2964290030DD000030DC00003051
:1012C000DB000030DA008A2A5E08DA075F08DB3DBF
:1012D0006008DC3D6108DD3D5D1C6F2970291A2A1C
:1012E0006D1C732974297A296D360138E200620871
:1012F000ED007C290310ED0C5A1C7F2980298129DF
:10130000ED170130E200DD37DC0CDB0CDA0CE20B10
:1013100083290130E2006208EC071A2A5D08803A4E
:10132000E2006108803A6202031DA02960085C02A5
:10133000031DA0295F085B02031DA0295E085A0255
:101340000318A329A429DC29FF30E200FF30E300C1
:10135000FF30E400FF30E5005A085E02E6005B085B
:101360005F3BE7005C08603BE8005D08613BE9002B
:101370006608E2076708E33D6808E43D6908E53D63
:101380006508DD006408DC006308DB006208DA0041
:101390008030E2006208EA06ED09ED0A6D08031DDF
:1013A000D229D329E4290130DA070030DB3D0030AF
:1013B000DC3D0030DD3DE4295E08DA025F08DB3BFE
:1013C0006008DC3B6108DD3B5D085C045B045A049B
:1013D000031DEB29EC29162A6D08031DF029F129BC
:1013E000162A0030DD000030DC000030DB00003069
:1013F000DA008A2A0130DA35DB0DDC0DDD0D890BD0
:10140000FB29ED1F042A052A062A5A146D1C092AF5
:101410000A2A0D2A0314ED0D0F2A0310ED0D6C0896
:101420000319132A142A162A0130EC02DC1F192A88
:101430001A2AFA29EB01ED1F1E2A1F2A2D2A6D08F0
:101440007F390319242A252A282AEB01EB0A2D2AA1
:101450005A1C2B2A2C2A2D2A252A6B080319312ADB
:10146000322A5F2A0130DA070030DB3D0030DC3DF4
:101470000030DD3D5D1C3D2A3E2A5F2A5A08E2000D
:101480005B08E3005C08E4005D08E5000130E6006D
:10149000E537E40CE30CE20CE60B482A6508DD00B6
:1014A0006408DC006308DB006208DA006C0A0319D8
:1014B0005A2A5B2A5F2A0130E2006208EC076C0AB4
:1014C0000319632A642A692A6C08031D682A692A99
:1014D000772A0030DD000030DC000030DB00003017
:1014E000DA006C08031D752A762A772AEA016C1C3B
:1014F0007A2A7B2A7D2ADC17812A7F30E200620863
:10150000DC056C36E2006208DD00EA1F882A892AC1
:101510008A2ADD170800200029088039AE002E082D
:10152000B3002935AE002E08B900A81F982A992AC1
:101530009A2A3914390803199E2A9F2AAE2A390A91
:10154000031DA32AA42AAC2A0030A9000030A80059
:101550000030A7000030A600A817B62A0030A90066
:101560000030A8000030A7000030A6002D08803908
:10157000AE002E08B3062D35AE002E08B800AC1F05
:10158000C22AC32AC42A381438080319C82AC92A07
:10159000D82A380A031DCD2ACE2AD62A0030AD001B
:1015A0000030AC000030AB000030AA00AC17E02ADD
:1015B0000030AD000030AC000030AB000030AA00BD
:1015C00038080319E42AE52AEA2A3908031DE92A1A
:1015D000EA2AF32A0030A9000030A8000030A70052
:1015E0000030A600E12C2608AE002E08F0002C08E2
:1015F0009B31EE238A3171082000BF007008BE00C5
:101600003E08AE00AF01B001B1013108B7003008AB
:10161000B6002F08B5002E08B4003F08AE00AF0199
:10162000B001B1013108BD003008BC002F08BB007B
:101630002E08BA002708AE002E08F0002B089B31B8
:10164000EE238A3171082000BF007008BE003E08FA
:10165000AE00AF01B001B1012E08B4072F08B53DAF
:101660003008B63D3108B73D3F08AE00AF01B001CC
:10167000B1012E08BA072F08BB3D3008BC3D310828
:10168000BD3D2808AE002E08F0002A089B31EE234D
:101690008A3171082000BF007008BE003E08AE000D
:1016A000AF01B001B1012E08B4072F08B53D3008D5
:1016B000B63D3108B73D3F08AE00AF01B001B10102
:1016C0002E08BA072F08BB3D3008BC3D3108BD3D90
:1016D0000830B435B50DB60DB70D890B692B270849
:1016E000AE002E08F0002A089B31EE238A317108E3
:1016F0002000BF007008BE003E08B4073F08B53D9B
:101700000030B63DB73D2608AE002E08F0002B088D
:101710009B31EE238A3171082000BF007008BE00A3
:101720003E08B4073F08B53D0030B63DB73D083030
:10173000B435B50DB60DB70D890B982B2608AE0044
:101740002E08F0002A089B31EE238A317108200010
:10175000BF007008BE003E08B4073F08B53D00302A
:10176000B63DB73D2708AE002E08F0002C089B318F
:10177000EE238A3171082000BF007008BE003E08C9
:10178000BA073F08BB3D0030BC3DBD3D2808AE0058
:101790002E08F0002B089B31EE238A3171082000BF
:1017A000BF007008BE003E08BA073F08BB3D0030CE
:1017B000BC3DBD3D2808AE002E08F0002C089B3132
:1017C000EE238A3171082000BF007008BE003E0879
:1017D000AE003F08AF00B001B1010830AE35AF0D2B
:1017E000B00DB10D890BEE2B2E08BA072F08BB3DAB
:1017F0003008BC3D3108BD3D3408AE003508AF00AF
:101800003608B0003708B1001830B136B00CAF0C54
:10181000AE0C890B052C2E08BA072F08BB3D3008EB
:10182000BC3D3108BD3D0830B435B50DB60DB70D22
:10183000890B142C39083807AE00AF01AF0D2E0804
:10184000823EBE00FF302F3DBF003D2C0130BA3537
:10185000BB0DBC0DBD0D890B272CB71F302C312CB7
:10186000322C3A140130B435B50DB60DB70D890BD5
:10187000332CFF30BE07FF30BF3DBC1F402C412C36
:10188000262CB801B71F452C462C622CFF3034059E
:10189000AE00FF303505AF00FF303605B0007F30B9
:1018A0003705B100310830042F042E040319592CD8
:1018B0005A2C5D2CB801B80A622C3A1C602C612CA1
:1018C000622C5A2C38080319662C672C8F2C013097
:1018D000BA070030BB3D0030BC3D0030BD3D3D1C73
:1018E000722C732C8F2C3A08AE003B08AF003C08DA
:1018F000B0003D08B1000130B200B137B00CAF0C00
:10190000AE0CB20B7D2C3108BD003008BC002F0896
:10191000BB002E08BA000130BE070030BF3D3F08B3
:10192000803AAE0080302E02031D982CFF303E021C
:10193000031C9B2C9C2CA62C7F302000BD008030EB
:10194000BC000030BB000030BA00D52C20003F089E
:10195000803AAE0080302E02031DB02C01303E02D2
:101960000318B32CB42CBF2C00302000BD00003075
:10197000BC000030BB000030BA00B301D52C200001
:101980003E08AE002E08B900FF30BA05FF30BB0597
:101990007F30BC050030BD05391CCF2CD02CD12C9C
:1019A000BC173936AE002E08BD003308AE002E0835
:1019B000BD043D08A9003C08A8003B08A7003A0860
:1019C000A60008002200AE0020006E08860001304C
:1019D0008700403F2100EA00413FEB006A08840095
:1019E0006B0885001200253A031DF72CF82CD62F22
:1019F00020006E08860001308700013081074131E8
:101A00000318810A2200E301E401E701E801FF3045
:101A1000E500FF30E60020006E08860001308700F8
:101A2000403F2100EA00413FEB006A0884006B0858
:101A3000850012002A3A031D1E2D1F2D432D200064
:101A40006E0886000130870001308107413103189C
:101A5000810A6F0886000130870001088400013088
:101A6000850002308107003F2200E300013FE400CF
:101A7000E41F3B2D3C2D8E2D6714E309E409E30A96
:101A80000319E40A8E2D20006E08860001308700BD
:101A9000403FF600413FF700933184238C317708B3
:101AA0002200E4007608E3005F2D20006E08860027
:101AB000013087000130810741310318810A20007D
:101AC0006E08860001308700403F2100EA00413F58
:101AD000EB006A0884006B0885000008D03EEC002B
:101AE000FF3003180030ED0000306D020A3003199A
:101AF0006C02031C7C2D7E2D01307F2D0030EE000A
:101B0000EF016E082200A00021006F082200A10052
:101B100020082104031D8D2D8E2D552D20006E08CB
:101B2000860001308700403F2100EA00413FEB0082
:101B30006A0884006B08850012002E3A031DA12D4F
:101B4000A22D272E2200E501E60120006E08860066
:101B5000013087000130810741310318810A6E0886
:101B6000860001308700403F2100EA00413FEB0042
:101B70006A0884006B08850012002A3A031DC12DF3
:101B8000C22DDC2D20006E08860001308700013058
:101B9000810741310318810A6F08860001308700F0
:101BA000010884000130850002308107003F2200D7
:101BB000E500013FE600272E20006E088600013078
:101BC0008700403FF600413FF700933184238C317A
:101BD00077082200E6007608E500F82D20006E0860
:101BE0008600013087000130810741310318810AE6
:101BF00020006E08860001308700403F2100EA0087
:101C0000413FEB006A0884006B0885000008D03E65
:101C1000EC00FF3003180030ED0000306D020A3098
:101C200003196C02031C152E172E0130182E0030DC
:101C3000EE00EF016E082200A20021006F082200D2
:101C4000A30022082304031D262E272EEE2D20009C
:101C50006E08860001308700403F2100EA00413FC6
:101C6000EB006A0884006B0885000008EC00ED01B9
:101C70006C08F6006D08F7009C3135248C3176082D
:101C80002100EE006E082200AA002A080319492E3E
:101C90004A2E912E20006E08860001308700403FBA
:101CA0002100EA00413FEB0001306A0784006B0825
:101CB00003186B0A85000008EC00ED016C08F600C3
:101CC0006D08F7009C3135248C3176082100EE0038
:101CD0006E082200AB002B0803196F2E702E912E78
:101CE00020006E08860001308700403F2100EA0096
:101CF000413FEB0002306A0784006B0803186B0A4F
:101D000085000008EC00ED016C08F6006D08F70096
:101D10009C3135248C3176082100EE006E082200BB
:101D2000AC0066302A06031D962E972EEA2E200060
:101D30006E08860001308700403F2100EA00413FE5
:101D4000EB006A0884006B0885000008EC006C0852
:101D50002200AD0020006E088600013087000130AF
:101D6000810741310318810A6F088600013087001E
:101D7000010884000130850004308107003F220003
:101D8000A600013FA700023FA800033FA9002908C1
:101D90002100AB00220028082100AA002200270809
:101DA0002100A900220026082100A80022002D08F9
:101DB0002100EA006A08AC0022002E088031FB20D6
:101DC0008C31210029082000EF0021002808200084
:101DD000EE00FF2F2130F0009830F1000230F200C9
:101DE0000030F3002A30903143208C3170087104A8
:101DF000031DFB2EFC2E982F20006E08860001305C
:101E00008700403F2100EA00413FEB0001306A07B4
:101E100084006B0803186B0A85000008EC006C084E
:101E20002200AD0020006E08860001308700403F90
:101E30002100EA00413FEB006A0884006B0885003E
:101E40000008BF3EEC00FF3003180030ED0000300A
:101E50006D021A3003196C02031C2F2F312F013031
:101E6000322F0030EE00EF016E082200A4002100A6
:101E70006F082200A500240825040319402F412FD4
:101E8000562F20006F08860001308700010884006B
:101E90000130850004308107003F2200A600013F89
:101EA000A700023FA800033FA9006A2F20006F0887
:101EB000860001308700010884000130850004306D
:101EC0008107003F2200A600013FA700023FA800B3
:101ED000033FA90020006E08860001308700023011
:101EE000810741310318810A220029082100AB0033
:101EF000220028082100AA00220027082100A900AA
:101F0000220026082100A80022002D082100EA0056
:101F10006A08AC0022002E088031FB208C312100A1
:101F200029082000EF00210028082000EE00FF2FE4
:101F300020006E08860001308700403F2100EA0043
:101F4000413FEB006A0884006B0885001200253AC7
:101F5000031DAB2FAC2FC92F20006E088600013067
:101F600087000130810741310318810A2530F000D4
:101F70000030F10022002E082100EA006A08F20079
:101F80009E31F7268C3101302000EE000030EF004A
:101F9000FF2F20006E088600013087000130810786
:101FA00041310318810AEE01EF01FF2F20006E0876
:101FB000860001308700403F2100EA00413FEB00EE
:101FC0006A0884006B0885000008EC00ED016C08CD
:101FD000F0006D08F10022002E082100EE006E08CE
:101FE000F2009E31F7268C3120006E088600013009
:101FF00087000130810741310318810AC32F08008F
:1020000000309B313B2390313430FB00F230890BA0
:102010000728FB0B072803309C31E22490310D3058
:10202000FB00FC30890B1228FB0B122803309C317B
:10203000E22490311D30FB009130890B1D28FB0BF1
:102040001D28000003309C31E224903102309C3185
:10205000E224903102309C31E224903108309C31EE
:10206000E224903100309C31E22490310C309C31DC
:10207000E224903100309C31E224903106309C31D2
:10208000E22490310800F5007508F4007408F800A7
:102090007108F7007008F6000130F2020030F33BDF
:1020A000720A031D5728730A031D572858286728EA
:1020B000F001F1019D280130F4007408F8070130A7
:1020C000F6070030F73D0130F2020030F33B7808AC
:1020D000860001308700010803196F2870288F28B7
:1020E000760884007708850012000319782879287B
:1020F0008F287208730403197E287F288F2876089A
:102100008400770885000008F40078088600013014
:1021100087000108740603198E288F285B28780829
:102120008600013087007608840077088500000863
:102130000102F000F101031CF103080021009911D4
:102140001916991619178B130B120B1323008C01F8
:102150008E0121008C018E0120008C018E01220055
:102160008C018E0121000C148C140C150E128E1291
:102170000C160E158E150E148E1400302000A300C0
:102180000130A2008630A100A030A0009C31B22412
:10219000903102302000A9000430A800BA30890B29
:1021A000CF28A80BCF28A90BCF2800009031002002
:1021B00090319A31D32290319A31CA229031FB0169
:1021C000FB0A01309E31162690310030FA0098301B
:1021D000FB009B316E23903115302000A9004B305D
:1021E000A800BE30890BF228A80BF228A90BF22810
:1021F00000000800F601F11FFE28FF280629F0095B
:10220000F109F00A0319F10AF601F60AF31F092988
:102210000A291329F209F309F20A0319F30A013012
:10222000F4007408F606F701F80170087104031948
:102230001A291B294A29F501F50A27290130F03509
:10224000F10D890B1F290130F4007408F507F11F07
:102250002A292B291E290130F735F80D890B2C2945
:1022600071087302031D362970087202031C392994
:102270003A293F297008F2027108F33B77140130C4
:10228000F136F00C890B40290130F502031D492974
:102290004A292B29760803194E294F295429F70971
:1022A000F809F70A0319F80A7808F1007708F0002E
:1022B00008000310720D730DF4007408FA007A0818
:1022C000031D632964296D290030F3000030F200FA
:1022D0000030F1000030F000CC297008F4007108E3
:1022E000F5007208F6007308F7001F30F736F60C99
:1022F000F50CF40C890B76297408F8007808F900BD
:10230000F217FF30F005FF30F105FF30F205003025
:10231000F3059630FA02FA1F8E298F29A7297A0829
:10232000803A973E03189529962997296429013008
:10233000F336F20CF10CF00C890B98290130F40003
:102340007408FA07031DA529A6299729BC2920305E
:102350007A02031CAC29AD29B72964290130F03574
:10236000F10DF20DF30D890BAF290130FA027A0855
:10237000031DBB29BC29AE2979080319C029C1292D
:10238000CC29F009F109F209F309F00A0319F10A5D
:102390000319F20A0319F30A080023002F0820008A
:1023A000A50023002E082000A40023002D082000F3
:1023B000A30023002C082000A2007308A5007208C7
:1023C000A4007108A3007008A2002208F4002308EA
:1023D000F5002408F6002508F7001730F736F60C4C
:1023E000F50CF40C890BEE29FF307405A0000030C9
:1023F0007505A10020082104031DFF29002A212AB8
:102400002208F4002308F5002408F6002508F70048
:102410000130F435F50DF60DF70D890B092A770813
:10242000760475047404031D162A172A1C2A023028
:10243000F0000030F1004B2A0330F0000030F100D2
:102440004B2A200A2104031D262A272A472A22086C
:10245000F4002308F5002408F6002508F7000930E9
:10246000F435F50DF60DF70D890B302A7708760453
:102470007504740403193D2A3F2A0130402A0030B4
:10248000F800F9017808F0007908F1004B2A0430CF
:10249000F0000030F1000800003020004005C800C6
:1024A00000304105C90080304205CA007F30430535
:1024B000CB004B084A0449044804031D602A612AE2
:1024C000692A0030C3000030C2000030C100003073
:1024D000C00000304405C80000304505C900803008
:1024E0004605CA007F304705CB004B084A04490423
:1024F0004804031D7C2A7D2A852A0030C70000304D
:10250000C6000030C5000030C400C31F882A892AD5
:10251000A12A0030C8000030C9000030CA00803055
:10252000CB004008C8024108C93B4208CA3B4308E7
:10253000CB3B4B08C3004A08C2004908C100480809
:10254000C000C71FA42AA52ABD2A0030C800003039
:10255000C9000030CA008030CB004408C8024508DA
:10256000C93B4608CA3B4708CB3B4B08C7004A0853
:10257000C6004908C5004808C4008030C306803042
:10258000C70647084302031DCF2A46084202031D1F
:10259000CF2A45084102031DCF2A440840020318F0
:1025A000D22AD32AD52A0310D62A031408002000E1
:1025B000A00020080319DD2ADE2AF22AF91FE12AE9
:1025C000E22AF22A7609A2007709A3007809A4007A
:1025D0007909A500A20A0319A30A0319A40A031979
:1025E000A50AFA2A7908A5007808A4007708A300AC
:1025F0007608A2007908780477047604031D012B7D
:10260000022B0B2B0030F9000030F8000030F700EF
:102610000030F600832B9630FA007A08A1001B2BBD
:102620000130FA007A08A1070130A536A40CA30CEA
:10263000A20C890B152BFE302505031D202B212B09
:10264000102B352B0130FA007A08A1070130A207C0
:102650000030A33D0030A43D0030A53D0130A5363B
:10266000A40CA30CA20C890B2F2BFF302505031DF6
:102670003A2B3B2B222B452B0130A1020130A235F6
:10268000A30DA40DA50D890B3F2BA41B482B492B93
:102690004F2B0230210203184E2B4F2B3C2B2118BD
:1026A000522B532B5B2BFF30A205FF30A3057F304D
:1026B000A405FF30A5050310A10C2108FA00FB01B9
:1026C000FC01FD011830FA35FB0DFC0DFD0D890BE9
:1026D000632B7A08A2047B08A3047C08A4047D0869
:1026E000A50420080319752B762B7B2BF91F792B5A
:1026F0007A2B7B2BA5172508F9002408F80023085E
:10270000F7002208F60008002000A701A801A00198
:10271000A1018E2B0130F6070030F73DA601A60A75
:1027200076088400770885001200203A0319992B57
:102730009A2BAF2B76088400770885000008F73EB7
:10274000F800FF3003180030F9000030790205303E
:1027500003197802031CAD2BAE2BAF2BA601260864
:10276000F800F9017808A2007908A30022082304E0
:10277000031DBB2BBC2B8A2BC62B0130A0000030C5
:10278000A1000130F6070030F73DFA2B76088400EF
:10279000770885000008F800F9017908003A031964
:1027A000D22BFA2B78082B3A0319C12B063A0319BE
:1027B000BD2BFA2B76088400770885000008F80006
:1027C0002808F1002708F0000A30F2000030F3007A
:1027D0009B318D2393317108FA0078087002F9005B
:1027E000031CFA037908303E2000A70000307A3D30
:1027F000A800C12B76088400770885000008D03E29
:10280000F800FF3003180030F900003079020A3078
:1028100003197802031C0D2C0F2C0130102C0030F2
:10282000FA00FB017A08A4007B08A500240825040F
:10283000031D1B2C1C2CDA2B20082104031D212C2A
:10284000222C2E2C2709F8002809F900F80A031970
:10285000F90A7808F6007908F700322C2808F70002
:102860002708F6000800200047088039C8004808FB
:10287000D1004735C8004808D800C61F402C412C5D
:10288000422C581458080319462C472C572C580A28
:10289000031D4B2C4C2C542C0030C7000030C600BC
:1028A0000030C5000030C400C617C7015F2C0030DF
:1028B000C7000030C6000030C5000030C400430827
:1028C0008039C8004808D1064335C8004808D900F7
:1028D000C21F6B2C6C2C6D2C591459080319712CC8
:1028E000722C822C590A031D762C772C7F2C0030F9
:1028F000C3000030C2000030C1000030C000C21769
:10290000C3018A2C0030C3000030C2000030C10077
:102910000030C0004308420441044004031D912CD0
:10292000922CAB2C0030C7000030C6000030C50030
:102930000030C4008030C6047F30C7045108C8008E
:102940004808C7044708C3004608C2004508C1003C
:102950004408C000E62D5808031DAF2CB02CB92C3C
:102960000030C3000030C2000030C1000030C000A1
:10297000E62D5808C800C9014908CB00590848028B
:10298000CA00031CCB034A087F3ED20000304B3DF7
:10299000D3004708D0004608CF004508CE004408C1
:1029A000CD000030C7000030C6000030C500003048
:1029B000C4000030D7000030D6000030D500003011
:1029C000D400D901212D59080319E72CE82C022D38
:1029D0000130CD35CE0DCF0DD00D890BE92C013056
:1029E000C435C50DC60DC70D890BF02CD71FF92CAA
:1029F000FA2CFB2C44140130D435D50DD60DD70D4F
:102A0000890BFC2C43085002031D102D42084F0275
:102A1000031D102D41084E02031D102D40084D02CC
:102A2000031C132D142D1D2D57174008CD024108EE
:102A3000CE3B4208CF3B4308D03B0130C80048089A
:102A4000D9071A305902031C262D272DE32C5008D4
:102A50004F044E044D0403192E2D2F2D482D5414D0
:102A6000482D0130C435C50DC60DC70D890B322D5B
:102A7000D71F3B2D3C2D3D2D44140130D435D50DB1
:102A8000D60DD70D890B3E2DFF30D207FF30D33D39
:102A9000C61F4B2D4C2D312DD901D71F502D512D37
:102AA0006D2DFF305405C800FF305505C900FF30BB
:102AB0005605CA007F305705CB004B084A0449042D
:102AC00048040319642D652D682DD901D90A6D2D8F
:102AD000441C6B2D6C2D6D2D652D59080319712D1E
:102AE000722D9A2D0130C4070030C53D0030C63D1F
:102AF0000030C73D471C7D2D7E2D9A2D4408C8000F
:102B00004508C9004608CA004708CB000130CC0080
:102B1000CB37CA0CC90CC80CCC0B882D4B08C7008E
:102B20004A08C6004908C5004808C4000130D20759
:102B30000030D33D5308803AC80080304802031D5E
:102B4000A32DFF305202031CA62DA72DB42DFF305C
:102B50002000D2000030D3000030C7000030C60093
:102B60000030C5000030C40020005308803AC8007F
:102B700080304802031DBE2D013052020318C12DC2
:102B8000C22DCE2D2000D201D3010030C70000306D
:102B9000C6000030C5000030C400D101200052083A
:102BA000C8004808D800581CD62DD72DD92DC617D7
:102BB000DD2D7F30C8004808C6055836C8004808D3
:102BC000C7005108C8004808C704A22C080090316B
:102BD0009E2095319A31F52295319A31E72295312F
:102BE0006E302500980022000E128E169A31D322E4
:102BF00095312200CF01D0019E315F2695319D3164
:102C0000882595319D31CF25953101302200CF07A0
:102C10000030D03D5008803AC70080304702031D85
:102C2000132E1E304F02031C162E172EFC2DC33000
:102C30002000DD008830DC00C030DB000030DA002E
:102C40003C30C3002330C200D730C1000A30C0007E
:102C50003C30A9009F30A800FD30A7006130A600DD
:102C60009E315F2695312200C700C801C901CA0103
:102C70004A08F9004908F8004808F7004708F60034
:102C800001309231D722953179082000AD007808C3
:102C9000AC007708AB007608AA008A318B22953108
:102CA00020002908C7002808C6002708C5002608F4
:102CB000C40094313324953120004308E1004208D8
:102CC000E0004108DF004008DE00883153209531E4
:102CD00020005D082300BF0020005C082300BE0028
:102CE00020005B082300BD0020005A082300BC0020
:102CF00041302000C3003030C2000030C10000303D
:102D0000C0003C30A9009F30A800FD30A700613012
:102D1000A6009D31882595312200C700C801C90150
:102D2000CA014A08F9004908F8004808F7004708AE
:102D3000F60001309231D722953179082000AD009C
:102D40007808AC007708AB007608AA008A318B229D
:102D5000953120002908C7002808C6002708C500AB
:102D60002608C40094313324953120004308220002
:102D7000CE00200042082200CD00200041082200A1
:102D8000CC00200040082200CB003D302000C300D2
:102D9000E130C2004730C100AE30C00022004E0812
:102DA0002000C70022004D082000C60022004C0869
:102DB0002000C50022004B082000C40094313324B9
:102DC0009531200043082300BB0020004208230067
:102DD000BA00200041082300B90020004008230069
:102DE000B8003E302000C3008030C2000030C10077
:102DF0000030C0003C30A9009F30A800FD30A70083
:102E00006130A6009D31CF2595312200C700C80151
:102E1000C901CA014A08F9004908F8004808F70042
:102E20004708F60001309231D72295317908200009
:102E3000AD007808AC007708AB007608AA008A31AC
:102E40008B22953120002908C7002808C6002708D2
:102E5000C5002608C400943133249531200043086E
:102E60002300B700200042082300B60020004108DC
:102E70002300B500200040082300B400FB01FB0A3A
:102E800001309E31162695310B302200B700983064
:102E9000B800230037082200BC00230036082200B7
:102EA000BB00230035082200BA00230034082200AA
:102EB000B900CE309C3111249531CE30FA0001306A
:102EC000FB009B316E2395312A30FA009830FB00CD
:102ED0009B316E2395310C302200C7004708FB0060
:102EE00001309E31162695310B302200B700983004
:102EF000B80023003B082200BC0023003A0822004F
:102F0000BB00230039082200BA0023003808220041
:102F1000B900CE309C3111249531CE30FA00013009
:102F2000FB009B316E2395312430FA009830FB0072
:102F30009B316E239531FB01FB0A02309E31162630
:102F400095310B302200B7009830B80023003F08BD
:102F50002200BC0023003E082200BB0023003D08E5
:102F60002200BA0023003C082200B900CE309C3178
:102F700011249531CE30FA000130FB009B316E23D5
:102F800095312730FA009830FB009B316E23953144
:102F900002302200C8000430C700BA30890BCE2F9F
:102FA000C70BCE2FC80BCE2F000020000C1CD92F32
:102FB000DA2FDE2F373025009800172E8C1CE12FDA
:102FC000E22FF32F01302500980202302200C800C2
:102FD0000430C700BA30890BEB2FC70BEB2FC80B9F
:102FE000EB2F0000172E0C1DF62FF72FE52F0130C9
:102FF0002200C700470825009807E52F80310228E6
:103000005034613475346C34203449346F34723444
:10301000673461340034253432342E34313466342C
:10302000003449344E34463400344E3441344E3446
:10303000003469346E34663400346E3461346E3476
:1030400000346C346634003420344134003420348D
:0A30500043340034203456340034B9
:10355E0008000134803104209A312400161408002A
:10356E00803104209A312400161508006400800171
:10357E000131890BBE2A0034803104209A31700843
:10358E0024009100080000309C31E2249A310C3066
:10359E009C31E2249A31080000309C31E2249A31A9
:1035AE0001309C31E2249A310800730872047104D0
:1035BE0070040319E32AE42AE62A8030F306080091
:1035CE0021000C160E158E1523000C160E158E15D9
:1035DE000D3021009D0028309E00080021008C1621
:1035EE002000911022001E140C3025009A009E011E
:1035FE009C01653020009B002500980104302000BE
:10360E009C0021008C1208007008D03EF200FF30A2
:10361E00713DF300003073020A3003197202031C6D
:10362E00192B1B2B01301C2B0030F400F5017408F4
:10363E00F0007508F10008007008BF3EF200FF3080
:10364E00713DF300003073021A3003197202031C2D
:10365E00312B332B0130342B0030F400F50174087C
:10366E00F0007508F1000800F4009A31B1229B3188
:10367E007030F0000030F1009A31C3229B31740893
:10368E00F200F3017208F0007308F1009A31C322C0
:10369E009B319A31B7229B310800F4007408F20076
:1036AE007208F3005E2B0130F2007208F407740802
:1036BE008600023087000108031D662B672B5A2BEC
:1036CE0073087402F000F101F01BF10308002000F2
:1036DE00A001A101812B7A08200784007B08213DDF
:1036EE00850000089D3149259B3101302000A0073F
:1036FE000030A13D7A08200784007B08213D85001B
:10370E001200031D8B2B8C2B722B0800F401F5017C
:10371E00701C922B932B972B7208F4077308F53DB0
:10372E000130F235F30D890B982B0130F136F00C88
:10373E00890B9D2B70087104031DA62BA72B8F2BB5
:10374E007508F1007408F0000800F401F40A203046
:10375E00700671040319B42BB52BC52B7008F73EF8
:10376E00F200FF30713DF300003073020530031993
:10377E007202031CC32BC42BC52BF4017408F20078
:10378E00F3017208F0007308F1000800F7007108E9
:10379E00F5007008F4007708F2007208F60076085B
:1037AE00860002308700F60A7508F3007408F200EE
:1037BE00F40A0319F50A72088400730885000008DC
:1037CE00C03F8908031DEC2BED2BD62B0800F8000B
:1037DE00F401F5017008F200F3017208F6007308A7
:1037EE00F700781CFB2BFC2B002C7608F4077708CF
:1037FE00F53D0130F635F70D890B012C0310F80C51
:10380E007808031D0B2C0C2CF82B7508F10074088E
:10381E00F00008002200C0003930BD003D08C10094
:10382E004008BD003D08C200C301C401C501C60168
:10383E003808B0003708AF004130BD003D08B10078
:10384E0042309C3183249C31220043084007BD0046
:10385E003D08860001308700810108007608BF3ED2
:10386E00F800FF30773DF900003079021A30031965
:10387E007802031C432C452C0130462C0030FA00F4
:10388E00FB017A08FC007B08FD007C087D0403190F
:10389E00512C522C592C20307604F600003077042F
:1038AE00F700592C08002000A300A101A201722CE0
:1038BE002008F900FA017908F0007A08F10078087A
:1038CE00FB007B08F2009E31F7269C310130200070
:1038DE00A1070030A23D21082307F90079088600D0
:1038EE00023087000108FA007A08A0002008031DA4
:1038FE00812C822C5F2C08002200B4003008B60008
:10390E002F08B500E101E201A42C3530B2003208D7
:10391E002000EE0022003108B30033082000EF0033
:10392E00220034088C31E2249C3120006E082200E3
:10393E00E10720006F082200E23D350884003608BA
:10394E0085001200031DAC2CAD2C8C2C6208B0002F
:10395E006108AF0008002830240095009601200071
:10396E002008A4002108A5002208A6002308A7000D
:10397E000230A435A50DA60DA70D890BC02C270866
:10398E00F3002608F2002508F1002408F0000030AC
:10399E00F7007A30F6001230F5000030F4009F3157
:1039AE00A6279C317008FF3E24009200940121004E
:1039BE000E148E140800FA007A08F5000330F5355F
:1039CE00FF3E031DE62C7535F6007608FA00003032
:1039DE009B313B239C317A089B313B239C31043035
:1039EE007A04F8000030F90078089B313B239C31B3
:1039FE000B30F5006230890B022DF50B022D0032D3
:103A0E007A08F500F6017508F8007608F9007808CE
:103A1E009B313B239C31080080302100A3062708F0
:103A2E002000DD00210026082000DC0021002508F2
:103A3E002000DB00210024082000DA0021002308EA
:103A4E002000E100210022082000E00021002108D2
:103A5E002000DF00210020082000DE0088315320E6
:103A6E009D3120005D082100A30020005C0821008C
:103A7E00A20020005B082100A10020005A082100AE
:103A8E00A0000800F70077080F39F5007508F90057
:103A9E007908F5000330F535FF3E031D522D7535BF
:103AAE00F6007608F9007708F039F5007508F80089
:103ABE0001309B313B239D3178089B313B239D3157
:103ACE00780805389B313B239D311A30890B6D2DBB
:103ADE000032780801389B313B239D3179089B31A8
:103AEE003B239D31790805389B313B239D311A309C
:103AFE00890B7F2D0032790801389B313B239D3194
:103B0E0008001D3021009D004230890B8C2D0032A3
:103B1E0021009D149D18942D952D912D1C08F000BB
:103B2E00F10170082200EB007108EC000630513EE6
:103B3E008600013087000430513E8400013085003C
:103B4E00003F5307F000013F543DF100403F700726
:103B5E00F200413F713DF3006B087207F4006C08F0
:103B6E00733DF500F536F40CF536F40C7408D100FF
:103B7E007508D2005608D8005508D7005408D6004C
:103B8E005308D5005208D4005108D300510808003C
:103B9E00193021009D004230890BD32D00322100B7
:103BAE009D149D18DB2DDC2DD82D1C08F000F10185
:103BBE0070082200ED007108EE000630593E8600B6
:103BCE00013087000430593E840001308500003FEB
:103BDE005B07F000013F5C3DF100403F7007F200D3
:103BEE00413F713DF3006D087207F4006E08733D9E
:103BFE00F500F536F40CF536F40C7408D90075089A
:103C0E00DA005E08E0005D08DF005C08DE005B089D
:103C1E00DD005A08DC005908DB00590808002000B6
:103C2E00A0002003031D1C2E1D2E3B2E7B087F3E65
:103C3E00FC007C08A3002308FC000430FC36890B32
:103C4E00252E7C08FD007D08A10023080F39FC00FD
:103C5E007C08A20021089C31E2249E31200022081B
:103C6E009C31E2249E315E2E02302006031D402E32
:103C7E00412E5E2E7B08BF3EFC007C08A30023086D
:103C8E00FC000430FC36890B492E7C08FD007D08B3
:103C9E00A10023080F39FC007C08A20021089C31EA
:103CAE00E2249E31200022089C31E2249E3108003D
:103CBE000D3021009D004230890B632E0032210011
:103CCE009D149D186B2E6C2E682E1C08F000F101B1
:103CDE0070082200E9007108EA000630A03E860056
:103CEE00013087000430A03E840001308500003F83
:103CFE0023002207F000013F233DF100403F7007F3
:103D0E00F200413F713DF300220069087207F40092
:103D1E006A08733DF500F536F40CF536F40C7408AC
:103D2E002300A0007508A1002508A7002408A600FE
:103D3E002308A5002208A4002108A3002008A20041
:103D4E002008080000307005F80000307105F900F9
:103D5E0080307205FA007F307305FB007B087A0411
:103D6E0079047804031DBC2EBD2EC52E0030F30041
:103D7E000030F2000030F1000030F0000030740529
:103D8E00F80000307505F90080307605FA007F30B6
:103D9E007705FB007B087A0479047804031DD82E7E
:103DAE00D92EE12E0030F7000030F6000030F5007D
:103DBE000030F40077087306031DEF2E76087206A6
:103DCE00031DEF2E75087106031DEF2E7408700685
:103DDE000319F22EF32EF52E0310F62E03140800FF
:103DEE0072080319FB2EFC2E012F7208031D002FE3
:103DFE00012F062F70089A31AF229E314C2F720878
:103E0E00033E860001308700160001040319102FAF
:103E1E00112F302F7208033E860001308700403F7D
:103E2E00F300413FF400720A860001308700403FE4
:103E3E00F500413FF6007608803AF7007408803AA4
:103E4E007702031D2C2F7308750203182F2F302FA6
:103E5E004C2F7008F3007208860001308700720A3A
:103E6E0084000130850000080107F4007408860004
:103E7E000130870073088100720A860001308700C6
:103E8E000130810741310318810A08002000AB0080
:103E9E002200671C532F542F5D2F20002B08FC008F
:103EAE007C08F80024089C315A249F312000A61B60
:103EBE00612F622F672F2608AA002508A900692FF7
:103ECE00A901AA01A701A8017D2F2030F000003022
:103EDE00F10020002B08FC007C08F2009E31F72632
:103EEE009F3101302000A7070030A83D2808803AF6
:103EFE00FC002A08803A7C02031D872F290827021E
:103F0E00031C8A2F8B2F6C2F220067188F2F902F58
:103F1E00992F20002B08FC007C08F80024089C3107
:103F2E005A249F31200024089B3154239F312000B6
:103F3E0029087007A4002A08713DA500080000306A
:103F4E00FC000030FB000030FA000030F90073086E
:103F5E007204710470040319B52FB62FF72FFD01EB
:103F6E00FD0AC42F0130F035F10DF20DF30D890B62
:103F7E00BA2F0130F8007808FD07F31FC72FC82F9E
:103F8E00B92F0130F935FA0DFB0DFC0D890BC92F38
:103F9E0073087702031DDD2F72087602031DDD2FD5
:103FAE0071087502031DDD2F70087402031CE02FCB
:103FBE00E12FEA2F7008F4027108F53B7208F63B08
:103FCE007308F73B79140130F336F20CF10CF00C58
:103FDE00890BEB2F0130FD02031DF62FF72FC82F93
:103FEE007C08F3007B08F2007A08F1007908F000F3
:023FFE000800B9
:020000040001F9
:04000E00E4C9FFFC46
:00000001FF
