:020000040000FA
:08000000803102288731FA2F3C
:100A5E00853154258531240016140800853154251E
:100A6E00853124001615080085315425853170080E
:100A7E0024009100080000308531DE2585310C30D0
:100A8E008531DE258531080000308531DE25853142
:100A9E0001308531DE258531080024001419582DCA
:100AAE00592D542D16081F39031D5E2D5F2D542D03
:100ABE00080021008C162000911022001E140C300C
:100ACE0025009A009E019C01653020009B002500A8
:100ADE009801043020009C0021008C120800F400C4
:100AEE0085312F2585317030F0000030F1008531D1
:100AFE003B2585317408F200F3017208F00073088B
:100B0E00F10085313B25853185313525853108004C
:100B1E002000A001A101A22D7A08200784007B08E5
:100B2E00213D8500000886310F26853101302000D9
:100B3E00A0070030A13D7A08200784007B08213DE4
:100B4E0085001200031DAC2DAD2D932D080028300D
:100B5E0024009500960120002008A4002108A5007D
:100B6E002208A6002308A7000230A435A50DA60D65
:100B7E00A70D890BBC2D2708F3002608F2002508C7
:100B8E00F1002408F0000030F7007A30F600123041
:100B9E00F5000030F4008631DA2685317008FF3E0C
:100BAE0024009200940121000E148E140800FA0005
:100BBE007A08F5000330F535FF3E031DE22D75353D
:100BCE00F6007608FA0000308531762585317A08F0
:100BDE0085317625853104307A04F8000030F9002D
:100BEE0078088531762585310B30F5006230890B1A
:100BFE00FE2DF50BFE2D00327A08F500F601750874
:100C0E00F8007608F90078088531762585310800D8
:100C1E00F70077080F39F5007508F9007908F50027
:100C2E000330F535FF3E031D182E7535F600760898
:100C3E00F9007708F039F5007508F80001308531B4
:100C4E0076258631780885317625863178080538FF
:100C5E008531762586311A30890B332E003278088D
:100C6E0001388531762586317908853176258631AC
:100C7E00790805388531762586311A30890B452E4F
:100C8E00003279080138853176258631080000302A
:100C9E008531762586313430FB00F230890B552EA6
:100CAE00FB0B552E03308531DE2586310D30FB00D2
:100CBE00FC30890B602EFB0B602E03308531DE2558
:100CCE0086311D30FB009130890B6B2EFB0B6B2E8A
:100CDE00000003308531DE25863102308531DE2578
:100CEE00863102308531DE25863108308531DE25AC
:100CFE00863100308531DE2586310C308531DE259A
:100D0E00863100308531DE25863106308531DE258F
:100D1E00863108002000A0002003031D972E982E78
:100D2E00B62E7B087F3EFC007C08A3002308FC0047
:100D3E000430FC36890BA02E7C08FD007D08A10036
:100D4E0023080F39FC007C08A20021088531DE251E
:100D5E008631200022088531DE258631D92E0230DB
:100D6E002006031DBB2EBC2ED92E7B08BF3EFC00D9
:100D7E007C08A3002308FC000430FC36890BC42E2B
:100D8E007C08FD007D08A10023080F39FC007C08BB
:100D9E00A20021088531DE2586312000220885310A
:100DAE00DE25863108000030FC000030FB000030EC
:100DBE00FA000030F900730872047104700403190C
:100DCE00E92EEA2E2B2FFD01FD0AF82E0130F0350B
:100DDE00F10DF20DF30D890BEE2E0130F8007808AF
:100DEE00FD07F31FFB2EFC2EED2E0130F935FA0D0B
:100DFE00FB0DFC0D890BFD2E73087702031D112FC1
:100E0E0072087602031D112F71087502031D112F32
:100E1E0070087402031C142F152F1E2F7008F40275
:100E2E007108F53B7208F63B7308F73B79140130F5
:100E3E00F336F20CF10CF00C890B1F2F0130FD0272
:100E4E00031D2A2F2B2FFC2E7C08F3007B08F200AB
:100E5E007A08F1007908F00008002100991119169E
:100E6E00991619178B130B120B1323008C018E017D
:100E7E0021008C018E0120008C018E0122008C013C
:100E8E008E0121000C148C140C150E128E120C16E1
:100E9E000E158E150E148E1400302000A300013096
:100EAE00A2008630A100A030A0008531AE2587318A
:100EBE0002302000A9000430A800BA30890B652F3B
:100ECE00A80B652FA90B652F000086314E268731A2
:100EDE0085314B258731853142258731FB01FB0A50
:100EEE0001308631912687312D30FA008830FB0093
:100EFE0085318F25873115302000A9004B30A80091
:100F0E00BE30890B882FA80B882FA90B882F0000C5
:100F1E0008008731342787318531602587312500D8
:100F2E00980122000E128E1620000C1C9F2FA02F4F
:100F3E00B02FFB01FB0A02308631912687311F301C
:100F4E00FA008830FB0085318F2587312500980106
:100F5E009B2F0C1DB32FB42FD22FFB01FB0A023097
:100F6E008631912687310030FA008830FB008531BA
:100F7E008F25873101302500980206302000AB0006
:100F8E001330AA00AD30890BCA2FAA0BCA2FAB0B98
:100F9E00CA2F00329B2F8C1CD52FD62FEA2FFB0188
:100FAE00FB0A02308631912687311030FA008830E4
:100FBE00FB0085318F25873101302000AA002A08D9
:100FCE0025009807C42F02302000AB000430AA0081
:100FDE00BA30890BF02FAA0BF02FAB0BF02F0000BD
:100FEE009B2F803102282000AC01AD0120008731FB
:100FFE00902F4D3449344E345534533420343D34CF
:10100E003D3420345034553453344834453444340C
:10101E00003450344C345534533420343D343D3444
:10102E002034503455345334483445344434003429
:10103E0053345334543420343D343D3420345034FE
:10104E0055345334483445344434003450346134C8
:10105E0075346C34203449346F34723467346134EF
:02106E0000344C
:020000040001F9
:04000E00E4C9FFFC46
:00000001FF
